:020000040800F2
:10000000F00E0020010100080D160008AB050008E5
:10001000590B000891010008EF27000800000000BC
:10002000000000000000000000000000211900088E
:10003000B7010008000000009D1700083D210008DE
:100040001B0100081B0100081B0100081B01000820
:100050001B0100081B0100081B0100081B01000810
:100060001B0100081B0100081B0100081B01000800
:100070001B0100081B0100081B0100081B010008F0
:100080001B0100081B0100081B0100081B010008E0
:100090001B0100081B0100081B0100081B010008D0
:1000A0001B0100081B0100081B0100081B010008C0
:1000B0004522000869220008FD2200081B010008F3
:1000C0001B0100081B0100081B0100081B010008A0
:1000D0001B01000849240008B9240008292500084C
:1000E000B90100081B0100081B010008DFF80CD053
:1000F00000F03CF8004800472D2B0008F00E0020CF
:100100000648804706480047FEE7FEE7FEE7FEE7B1
:10011000FEE7FEE7FEE7FEE7FEE7FEE7E521000873
:10012000ED000008D2B201E000F8012B491EFBD21D
:1001300070470022F6E710B513460A4604461946F2
:10014000FFF7F0FF204610BD30B505462A460B46A6
:1001500012F8010B13F8014B08B1A042F8D01CB102
:10016000002802D06D1CF1E7284630BD064C074D33
:1001700006E0E06840F0010394E807009847103477
:10018000AC42F6D3FFF7B6FF402C0008602C000805
:1001900000BFFEE710B502460B460021002400BF59
:1001A00004E0505C2044C4B2481CC1B29942F8DB60
:1001B000E043C0B210BD704770B500240025002692
:1001C00034E01E480068002830D001F0E9FA044607
:1001D000FA2C00D12BE0C82C03DBFA2C01DA012524
:1001E00017E0552C0ADBC82C08DA012014490870E6
:1001F00014480078401C1349087018E0322C03DBC7
:10020000552C01DA012604E00A2C02DB322C00DA3C
:1002100000265DB10C48006840000B4908600846A4
:10022000006830440860002006490870C9E700BF34
:100230004FF4805000F00AF870BD000030012142F8
:10024000B9000020B8000020B40000200149086077
:10025000704700001404014030B5044604254FF4F3
:10026000302000F083F80546042D17D10C480069B2
:1002700040F002000A49086108464461006940F004
:10028000400008614FF4302000F070F80546044843
:10029000006941F6FD71084001490861284630BDFA
:1002A0000020024004200B49C96801F0010109B196
:1002B00001200EE00749C96801F0040109B10220DC
:1002C00007E00449C96801F0100109B1032000E00A
:1002D00004207047002002400348006940F080007D
:1002E00001490861704700000020024070B50446D3
:1002F0000D460426F00200F039F80646042E11D10E
:100300000948006940F00100074908612580F002B2
:1003100000F02CF806460448006941F6FE710840DA
:1003200001490861304670BD00200240014608883E
:10033000704730B503460C461546002207E003EB34
:100340004200FFF7F3FF24F81200501C82B2AA42C9
:10035000F5DB30BD024803494860034848607047F8
:100360002301674500200240AB89EFCD00B502466E
:100370000423FFF797FF034603E0FFF793FF0346CD
:10038000521E012B01D1002AF7D102B905231846CC
:1003900000BD00002DE9F05F054689461746B5F11E
:1003A000006F04D305EB47001849884203D34FF090
:1003B000FF30BDE8F09FFFF7CDFFA5F1006A4FEADF
:1003C0009A284FF0006000EB882B5846FFF744FF57
:1003D0000646042E00D010E000240BE039F814107B
:1003E00005EB4400FFF782FF0646042E00D004E030
:1003F000601C84B2BC42F1DB00BFFFF76DFF042E2E
:1004000002D04FF0FF30D4E70020D2E7000001080F
:100410000EB50121084601F0D9F900F01DF84FF49E
:100420007A70ADF804004720ADF800000020ADF868
:10043000020069464FF0804001F0A6FF01218807C5
:1004400001F076FF01221146900701F091FF012192
:10045000880701F070FF0EBD08B51C208DF8000064
:1004600000208DF8010002208DF8020001208DF897
:100470000300684601F0D2F808BD2DE9F0410246BC
:1004800000250026002000230024002791F803C047
:100490000CF00F0591F803C00CF0100CBCF1000F2C
:1004A00003D091F802C04CEA050591F800C0BCF1F8
:1004B000000F31D0146800202BE04FF0010C0CFA33
:1004C00000F3B1F800C00CEA03069E4220D183007D
:1004D0004FF00F0C0CFA03F7BC4305FA03FC4CEA8F
:1004E000040491F803C0BCF1280F06D14FF0010CB1
:1004F0000CFA00FCC2F814C00AE091F803C0BCF189
:10050000480F05D14FF0010C0CFA00FCC2F810C0E6
:10051000401C0828D1D31460B1F800C0BCF1FF0F13
:1005200034DD546800202EE000F1080C4FF0010883
:1005300008FA0CF3B1F800C00CEA03069E4221D180
:1005400083004FF00F0C0CFA03F7BC4305FA03FCD1
:100550004CEA040491F803C0BCF1280F05D100F166
:10056000080C08FA0CF8C2F8148091F803C0BCF12A
:10057000480F07D100F1080C4FF0010808FA0CF8F9
:10058000C2F81080401C0828CED35460BDE8F0812A
:100590000246002093680B400BB1012000E00020D0
:1005A0007047416170470161704700BFFEE700007E
:1005B0004AF6AA2001490860704700000030004058
:1005C00010B50F4890F8C4000D4991F8C510884245
:1005D00014D00B4890F8C40028B94FF400510948D2
:1005E000FFF7DFFF04E04FF400510648FFF7DBFFA1
:1005F000034890F8C400024981F8C50010BD00000E
:10060000C4000020000C014008B50121042001F0C5
:10061000FDF84FF4E070ADF8000003208DF8020003
:1006200010208DF8030069460848FFF726FF402197
:100630000648FFF7B8FF80210448FFF7B4FF4FF4E6
:1006400080710248FFF7ADFF08BD000000080140BF
:1006500010B5694890F8A00005286BD2DFE800F0DB
:100660000330819EB000644890F8A300624991F87D
:10067000A610884223D0604890F8A30088B941F2C0
:1006800070705D49C1F8AC00012081F8A0000846F7
:1006900090F8A30081F8A6004FF47A60C1F8B80082
:1006A0000DE0554890F8A300534981F8A60008468C
:1006B00040883230C1F8AC00032081F8A00099E0F6
:1006C0004D48D0F8AC00A0B380214C48FFF760FF44
:1006D00000B18FE04A480078012805D180214748C1
:1006E000FFF756FF78B185E0434890F87B00042877
:1006F00004D0414890F87B00042803D13E48D0F84C
:10070000880000B176E001203B49C1F89400062042
:1007100081F87800022081F8A00040213948FFF7D5
:1007200040FF3548408800F5FA703349C1F8AC0005
:1007300016E000E05DE001202F49C1F8940006209A
:1007400081F87800022081F8A00040212D48FFF7B1
:1007500028FF2948408800F5FA702749C1F8AC0005
:1007600048E02548D0F8AC0000B143E040212548DE
:10077000FFF719FF0020204981F8A0000846807C7F
:10078000062801D10420887400201F490870022027
:100790001E49087000201E4908702BE01648D0F84A
:1007A000AC0000B126E040211648FFF7FAFE042015
:1007B000114981F8A0004FF4FA70C1F8AC0019E0BB
:1007C0000D48D0F8AC0000B114E040210D48FFF70F
:1007D000EAFE0948408832300749C1F8AC000020E1
:1007E00081F8A0004FF44870C866002081F87800B6
:1007F00000E000BF00BF10BDC4000020000C01409D
:1008000038000020000801403D0000203E0000208C
:100810003C00002010B5494890F8A10030B10128F3
:100820003AD003285CD0042872D16CE0434890F899
:10083000A41090F8A70081422DD0404890F8A40061
:10084000F0B93E4890F87900062804D001213B48D1
:1008500080F8A4106FE04FF4FA713848C0F8B01077
:10086000012180F8A11080213548FFF79AFE334816
:1008700090F8A41080F8A7100021C0F8BC100AE07E
:100880002E4890F8A41080F8A7100021C0F8B010EE
:10089000032180F8A1104EE02848D0F8B000F0B94C
:1008A0000121264880F8A41090F8A41080F8A71021
:1008B00080212348FFF777FE0021204880F8A1100F
:1008C000807C062802D104201C49887400201D4920
:1008D000087002201C49087001201C4908702AE099
:1008E0001648D0F8B00000B125E00421134880F884
:1008F000A11080211248FFF754FE4FF4FA710F48FF
:10090000C0F8B01017E00D48D0F8B00008B112E000
:1009100010E00121094880F8A41090F8A41080F894
:10092000A71080210648FFF73EFE0021034880F80B
:10093000A11000E000BF00BF10BD0000C4000020F7
:10094000000801403D0000203E0000203C00002047
:1009500010B56D4890F8A20030B101284DD00328A1
:1009600079D0042876D1B4E0674890F8A51090F8C3
:10097000A800814240D0644890F8A50018BB6248A6
:10098000D0F89C0018B100215F48C0F89C104FF4CB
:1009900000715E48FFF7FCFD70BB41F270715A4870
:1009A000C0F8B4100121C0F89C1080F8A2100621F4
:1009B00080F87A1090F8A51080F8A8104FF47A61AA
:1009C000C0F8C01018E0504890F8A51080F8A810A2
:1009D0004FF480714E48FFF7E4FD00204D49087048
:1009E0004D4908704848408832304749C1F8B40042
:1009F0000321454880F8A21083E04348D0F8B400B2
:100A0000E8B14FF400714148FFF7C2FD00BB4FF45D
:100A100080713F48FFF7C7FD00213B4880F8A210D6
:100A2000807C062802D104203749887400203B4985
:100A3000087002203A4908703A49087008E001211C
:100A4000314880F8A81080F8A510002180F8A21085
:100A500057E000E054E02C48D0F8B40000B150E07A
:100A60002C480078042824DA2A480078401C2949B8
:100A700008702948007868B90120274908700102E8
:100A80002348FFF790FD2048408832301E49C1F8C6
:100A9000B4001DE00020204908704FF480711C480C
:100AA000FFF77FFD1848408832301749C1F8B4007D
:100AB0000EE00421144880F8A21089011448FFF7C1
:100AC00072FD1148408800F596600F49C1F8B400E6
:100AD00017E00D48D0F8B40000B112E04FF4807177
:100AE0000B48FFF75EFD0848408832300649C1F8E0
:100AF000B4000021044880F8A21080F87A1000E0C9
:100B000000BF00BF10BD0000C4000020000C014069
:100B100000080140B0000020B10000203D0000208E
:100B20003E0000203C00002010B501F0BDF9FFF7A9
:100B300047FD00F0F7FE01F079FC00F00FF800F03F
:100B4000C5FA00F08FFB00F0ABFDFFF781FDFFF76A
:100B500061FEFFF7FDFE10BD00BFFEE710B5FE48C9
:100B600090F8780009287DD2DFE800F0053E7CBED1
:100B70007CCAFEFDFC00F84890F87E00022824D1D3
:100B80000620F54981F884000846408891F88410D1
:100B900001EB4101F14A02EB81014968084400F58B
:100BA0002F70ED49C1F88800012081F878000846CF
:100BB00090F87E0081F88100032081F87B000220FC
:100BC00081F84B00002008650DE00620E24981F81D
:100BD000780081F87B000020C1F88800084690F872
:100BE0007E0081F8810066E2DB4890F87B000328F4
:100BF00002D0062875D13CE08021D948FFF7C8FC17
:100C0000A0B90520D44981F8780081F87B00084616
:100C1000408891F8841001EB4101D04A02EB810138
:100C200049680844CC49C1F8880021E0CA48D0F896
:100C30008800E8B90620C84981F87B000846418849
:100C400090F8840000EB4000C44A02EB800040684A
:100C500000F5AF6001EB400000F52F70BE49C1F810
:100C6000880000E026E2042081F84B00002008659F
:100C700038E08021BA48FFF78BFCA8B90520B649B7
:100C800081F87800082081F87B000846408891F8B8
:100C9000841001EB4101B14A02EB8101496808442B
:100CA000AD49C1F888001AE0AB48D0F88800B0B967
:100CB0000320A94981F878000020AA490870012082
:100CC000A94908700320A94908700020A8490870A4
:100CD000A148807C062802D103209F49887401E046
:100CE000FFE700BF00BFE6E105209B4981F87800DF
:100CF00081F87B00084690F87E0081F88100DAE1F7
:100D0000954890F87B00C01E06287CD2DFE800F0F2
:100D1000034EA9C6F1F0904890F8A00001280ED12A
:100D200001219448FFF73FFC08219248FFF739FC66
:100D30000120894981F84B000020086595E186482B
:100D4000D0F8880088BB0420834981F87B0085485F
:100D50000078012814D10846408891F8841001EBEE
:100D6000410102E098E196E181E17C4A02EB8101D8
:100D70004968084400F52F707749C1F888000EE0F3
:100D800075484088744991F8841001EB4101734A19
:100D900002EB8101496808446F49C1F888000220CC
:100DA0006D4981F84B00002008655EE16A4890F8C3
:100DB000A00001280DD101216E48FFF7F4FB0821A6
:100DC0006C48FFF7EEFB0120634981F84B000020DF
:100DD000086580216248FFF7DBFB58BB5E4890F84E
:100DE000A000012800D140E15B4890F87E005A49FC
:100DF00091F8811088420AD00520574981F84B00AC
:100E00000020086500E02FE181F878002DE1052041
:100E1000514981F87B000846408891F8841001EB25
:100E200041014E4A02EB8101496808444A49C1F830
:100E3000880015E04848D0F8880088B90520464960
:100E400081F87B000846408891F8841001EB41014D
:100E5000424A02EB8101496808443F49C1F88800D1
:100E600003E13D4890F8A00001280ED1012141483E
:100E7000FFF797FB08213F48FFF795FB0320364912
:100E800081F84B0000200865EFE03348D0F8880077
:100E900018B90620304981F87B00E6E02E4890F82A
:100EA000A00001280ED101213248FFF77AFB08216A
:100EB0003048FFF778FB0320274981F84B000020DA
:100EC0000865D2E027480078012813D122484088DD
:100ED000214991F8841001EB4101204A02EB810184
:100EE0004968084400F634001B49C1F8880010E046
:100EF0009DE018E018484088174991F8841001EBEC
:100F00004101164A02EB8101496808441249C1F8BF
:100F100088000420104981F84B0000200865072054
:100F200081F87B00A1E00C4890F8A00001280DD1C9
:100F300001211048FFF735FB08210E48FFF733FB6E
:100F40000320054981F84B000020086580210448F2
:100F5000FFF71EFBE0BB0FE0C4000020580000209C
:100F6000000C0140380000203D0000203E00002021
:100F70003C00002000080140504890F8A0000128E3
:100F800000D172E04D4890F87E004C4991F88110F4
:100F9000884208D00520494981F84B0000200865A7
:100FA00081F8780061E00820444981F87B00084618
:100FB000408891F8841001EB4101414A02EB810124
:100FC0004968084400F52F703C49C1F888002DE0BD
:100FD000FFE73A48D0F8880040BB384890F8A000B6
:100FE000012800D141E0354890F87E00334991F85E
:100FF0008110884208D00520304981F84B0000203C
:10100000086581F8780030E008202C4981F87B00E1
:101010000846408891F8841001EB4101284A02EB10
:101020008101496808442549C1F888001DE023482A
:1010300090F8A00001280ED101212248FFF7B3FA51
:1010400008212048FFF7ADFA01201C4981F84B0028
:101050000020086509E01948D0F8880018B9032075
:10106000164981F87B0000E000BF00BF23E080212B
:101070001548FFF78DFA20B1104890F84B0005286D
:1010800008D105200D4981F84B0000200865082093
:1010900081F878000FE00EE0084890F87E000749DC
:1010A00091F88110884204D00020044981F878002A
:1010B00001E000E000BF00BF10BD0000C400002040
:1010C0005800002000080140000C014010B56248A3
:1010D00090F8790009287DD2DFE800F005BA0D0EFE
:1010E00044BA9FACAD005C48006F18B903215A4860
:1010F00080F87910ADE0ACE0574890F87F0098B9DF
:1011000002215648FFF74FFA10215448FFF749FAD9
:101110000321514880F87C104FF44871C0F88C10BE
:10112000042180F8791017E04B4890F87F000128DF
:1011300012D110214948FFF736FA02214748FFF73C
:1011400030FA0421444880F8791040F2DC51C0F8AC
:101150008C10062180F87C103F4890F87F1080F8B2
:10116000821076E03C4890F87F1090F8820081422F
:1011700013D0394890F87F0001280ED1022137485A
:10118000FFF70FFA10213548FFF70BFA002132481C
:1011900080F879100A2101675BE02F4890F87C0005
:1011A000032804D0062819D0FF2833D131E02A487B
:1011B000D0F88C0088B90121274880F87C100221E2
:1011C0002648FFF7EEF910212448FFF7EAF9062137
:1011D000214800E03CE080F879101CE01E48D0F87F
:1011E0008C0028B14FF480711D48FFF7D1F978B910
:1011F0000121194880F87C1002211848FFF7D1F925
:1012000010211648FFF7CDF90821134880F879100E
:1012100001E000E000BF00BF1BE00F4890F87F1026
:1012200090F88200814204D000210B4880F87910A8
:101230000FE00EE00DE0084890F87F1090F8820073
:10124000814204D00021044880F8791001E000E0D8
:1012500000BF00BF10BD0000C40000200008014016
:10126000000C014010B5C64890F87A00092870D2E9
:10127000DFE800F0056F1B1C59CBFEFDFC00C048E9
:10128000406F88B9BE4890F8860000EB4000BD4929
:1012900001EB80004168BA48C0F89010032180F843
:1012A0007A10002180F87D1067E166E1B44890F87B
:1012B000800060B90421B448FFF775F92021B248D5
:1012C000FFF76FF90421AE4880F87A1025E0AC48AA
:1012D00090F8800001280CD12021AB48FFF763F97A
:1012E0000421A948FFF75DF90421A54880F87A1088
:1012F00013E0A34890F8800002280ED10020A349F3
:1013000008700421A048FFF74EF920219E48FFF7FE
:1013100048F905219A4880F87A10994890F8801089
:1013200080F8831029E1964890F8801090F88300A7
:1013300081420FD004219448FFF733F920219248CD
:10134000FFF72FF900218E4880F87A10C8214167F5
:1013500013E111E18A4890F87D0010B1012851D1C4
:101360001BE08748D0F89000B0B9854890F8860017
:1013700000EB4000834901EB800081688048C0F8A1
:101380009C10012180F87D1004217F48FFF709F9A6
:1013900020217D48FFF705F935E07948D0F89C0019
:1013A00078BB774890F8860000EB4000754901EB68
:1013B000800041687248C0F89010002180F87D10CC
:1013C00090F8800060B904216F48FFF7ECF8202105
:1013D0006D48FFF7E6F80421694880F87A1010E0BC
:1013E000674890F8800001280BD120216648FFF75C
:1013F000DAF804216448FFF7D4F80421604880F843
:101400007A1000E000BF00BFB7E05D4890F88010A0
:1014100090F8830081420CD004215B48FFF7C1F8AB
:1014200020215948FFF7BDF80021554880F87A106F
:10143000A3E0534890F87D0020B1012865D0022830
:101440007ED13FE04E48D0F89000D8B94C4890F893
:10145000860000EB40004B4901EB80008168484862
:10146000C0F89C10012180F87D1002E083E081E04B
:101470006FE004214448FFF794F820214248FFF729
:1014800090F81EE03E48406FD8B94FF400714048D4
:10149000FFF77EF8A8B93A48408800F57A703849D5
:1014A00048670221364880F87D1020213648FFF732
:1014B00078F804213448FFF774F84FF4FA70304993
:1014C000886644E02E48806E00B140E02F480078E6
:1014D00058B901202D49087020212B48FFF763F8E7
:1014E00004212948FFF75DF80AE000202749087029
:1014F00004212548FFF757F820212348FFF751F82A
:1015000000211F4880F87D1021E01D48D0F89C0084
:10151000D8B900201D490870194890F8860000EBE2
:101520004000184901EB800041681548C0F8901050
:10153000002180F87D1004211348FFF734F800E003
:1015400004E020211048FFF72CF800E000BF00BFA6
:1015500013E00B48D0F89C0058B920210A48FFF747
:1015600020F804210848FFF71CF80821044880F8F7
:101570007A1002E001E000E000BF00BF10BD0000F3
:10158000C40000205800002000080140AF000020E7
:10159000000C014008B50121042000F037F90720B4
:1015A000ADF8000003208DF8020010208DF8030034
:1015B00069460A48FEF761FF0121042000F026F980
:1015C0003820ADF8000003208DF8020010208DF8BF
:1015D000030069460148FEF750FF08BD00080140BE
:1015E00008B50121082000F011F94FF46070ADF842
:1015F000000003208DF8020048208DF803006946A2
:101600000148FEF73AFF08BD000C0140704710B5D5
:101610004FF4A06000F03AF810BD000070B5002152
:1016200000230F22C47804B3154C246804F4E0644A
:10163000C4F5E064210AC1F10403CA40447804FA05
:1016400003F184781440214309010E4C0678A1551A
:10165000047804F01F050124AC4005786D11AD003D
:1016600005F1E025C5F8004109E0047804F01F0504
:101670000124AC40044D0678761145F8264070BD33
:101680000CED00E000E400E080E100E002490143ED
:10169000024A1160704700000000FA050CED00E0FE
:1016A00010B53C4890F84B00062870D2DFE800F0F7
:1016B00003041D354D666BE03648006D00B167E0F0
:1016C000344890F8A000012800D161E0012132489F
:1016D000FEF767FF08213048FEF763FF02202D491F
:1016E00081F84B000420086552E02A4890F8A000D9
:1016F000012800D14CE02748006D00B148E00121ED
:101700002548FEF750FF08212348FEF74AFF012035
:10171000204981F84B0008653AE01E48006D00B191
:1017200036E01C4890F8A000012800D130E00121EB
:101730001948FEF736FF08211748FEF732FF04204C
:10174000144981F84B00086522E0124890F8A00087
:10175000012800D11CE00F48006D00B118E0012104
:101760000D48FEF71EFF08210B48FEF71CFF032063
:10177000084981F84B000120086509E0012106486D
:10178000FEF70FFF08210448FEF70BFF00BF00BF64
:1017900000BF10BDC40000200008014070470000D9
:1017A00010B5002409E0601CC4B2142001F098F9BF
:1017B000FA2C02D100BF204610BD03480068002863
:1017C000F1D12046F8E700003001214229B1064A54
:1017D000D2690243044BDA6104E0034AD2698243CE
:1017E000014BDA61704700000010024029B1064A3F
:1017F00012690243044B1A6104E0034A12698243EE
:10180000014B1A61704700000010024029B1064ADE
:1018100092690243044B9A6104E0034A926982434D
:10182000014B9A61704700000010024029B1064A3E
:10183000D2680243044BDA6004E0034AD268824370
:10184000014BDA60704700000010024030B5002103
:101850000022002400232D4D6D6805F00C0121B1FC
:10186000042905D0082923D105E0294D056022E08F
:10187000274D05601FE0254D6D6805F47012234D5E
:101880006D6805F48034022505EB92421CB9214DA8
:10189000554305600BE01D4D6D6805F400351DB125
:1018A0001C4D5543056002E0194D5543056002E0AB
:1018B000174D056000BF00BF144D6D6805F0F001C5
:1018C0000909154D6B5C0568DD4045600F4D6D687D
:1018D00005F4E061090A104D6B5C4568DD408560E8
:1018E0000A4D6D6805F46051C90A0B4D6B5C456883
:1018F000DD40C560054D6D6805F44041890B074D1D
:101900006B5CC568B5FBF3F5056130BD00100240A6
:1019100000127A0000093D0024000020340000205D
:101920007047000010B51948807C072827D2DFE8EF
:1019300000F0042610171E262700144890F84200D5
:10194000012805D1832000F025F806200F4988746E
:101950001AE0FF2000F01EF806200C49887413E0FE
:10196000FF2000F017F80620084988740CE00848AA
:10197000007800F057F806200449887404E000BF9E
:1019800006200249887400BF00BF10BDC4000020BB
:101990003C00002030B59BB0054638210DA8FEF76D
:1019A000C8FBFF2D08D11C4800788DF836001B4875
:1019B00000788DF8370015E01948016801914168F9
:1019C0000291007A8DF80C0011208DF83600002469
:1019D00006E001A8015DE01C0DAA1154601CC4B210
:1019E000302CF6DBAA208DF834008DF835503321E9
:1019F0000DA8FEF7CFFB8DF8670055208DF8680025
:101A0000002405E00DA9085D01F002F8601CC4B2D5
:101A1000352CF7DB1BB030BD3E0000203D00002020
:101A2000E100002030B59BB0054638210DA8FEF737
:101A300080FBFF208DF8350002208DF836008DF8F0
:101A40003750AA208DF83400002406E001A8015D7B
:101A5000201D0DAA1154601CC4B22F2CF6DB3321BB
:101A60000DA8FEF797FB8DF8670055208DF86800EC
:101A7000002405E00DA9085D00F0CAFF601CC4B297
:101A8000352CF7DB1BB030BD10B500F001F810BDF0
:101A90000CB50020019000903348006840F480307D
:101AA0003149086000BF3048006800F40030009001
:101AB0000198401C0190009818B90198B0F5A06FEA
:101AC000F1D12948006800F4003010B101200090E5
:101AD00001E0002000900098012843D123480068CD
:101AE00040F01000214908600846006820F003001B
:101AF00008600846006840F0020008601A48406824
:101B0000194948600846406848600846406840F403
:101B1000806048600846406820F47C1048600846B1
:101B2000406840F4E81048600846006840F0807063
:101B3000086000BF0C48006800F000700028F9D071
:101B40000948406820F0030007494860084640689B
:101B500040F00200486000BF0348406800F00C00FD
:101B60000828F9D10CBD00000010024000200240FE
:101B700070B5CA490868FEF7D9FBC949C882122165
:101B8000C7483030FEF7D5FAC548C08A4FF6FF7116
:101B9000884207D0C248C08A062803DAC048C08AF3
:101BA000002868D10120BE49C88200240DE0BB494D
:101BB00001220868BA491631FEF7ECFB00B906E0CD
:101BC000142000F067FF601CC4B2082CEFDB00BFDC
:101BD00000241AE0002104EB4402B1481D30815476
:101BE00004EB440210444170012104EB4402AC4870
:101BF0001D301044817034B9022104EB4402A8481E
:101C00001D3010444170601CC4B2032CE2DB002480
:101C100022E004EB4401A2481D300844817804EB23
:101C200044029F4830301044817004EB44019C48CA
:101C30001D300844417804EB440299483030104488
:101C4000417004EB440196481D30415C04EB4402B2
:101C500013308154601CC4B2032CDADB002190489D
:101C600041870146C98A8D4A52F8210009228C49D0
:101C70003031FEF78FFB8A49C98A884A52F8210021
:101C8000092287493031FEF754FB002453E0844891
:101C9000303030F814004FF6FF71884249D10025EA
:101CA0001AE0002105EB45027D481D30815405EB0B
:101CB000450210444170012105EB450278481D3072
:101CC0001044817034B9022104EB440274481D3081
:101CD00010444170681CC5B2032DE2DB002422E0F1
:101CE00004EB44016E481D300844817804EB440243
:101CF0006B4830301044817004EB440168481D305B
:101D00000844417804EB4402654830301044417087
:101D100004EB440162481D30415C04EB4402133083
:101D20008154601CC4B2032CDADB00215C4841877B
:101D300003E0601CC4B2052CA9DB00BF002419E03D
:101D400004EB4401564830300844817804EB4402E7
:101D500053481D301044817004EB4401504830302A
:101D60000844417804EB44024D481D301044417052
:101D7000601CC4B2032CE3DB494890F83A004849A0
:101D800081F8C400084690F8C40038B1084690F8BD
:101D9000C400012802D0002081F8C40000242CE0F7
:101DA00004EB44013E481D30084441783C487E30F5
:101DB000015504EB44016138084481783848843087
:101DC0000155005D00EB4000364901EB80004168A1
:101DD0003348883040F82410001F005D00EB4000BD
:101DE000304901EB800081682D48943040F8241080
:101DF00001210F300155601CC4B2032CD0DB002040
:101E00002749087348738873886048800883C880AE
:101E100008778866062088740020C87481F842001C
:101E2000FF2081F8C500002407E001211C48A630EE
:101E30000155C01E0155601CC4B2032CF5DB002403
:101E400005E0002116484B300155601CC4B2032C3C
:101E5000F7DB002406E000211148503040F8241040
:101E6000601CC4B2032CF6DB00240DE000210C48FA
:101E70006C3040F824100C300155C01C0155313035
:101E800040F82410601CC4B2032CEFDB0621044888
:101E900080F879100021C0F8981070BD4000002033
:101EA000C40000205800002010B54C48007F00B945
:101EB00010BD4B48007830B1012837D0022850D0EF
:101EC00003286FD17BE0122144483030FEF731F90E
:101ED000002422E004EB440140481D30084481788E
:101EE00004EB44023D4830301044817004EB44015F
:101EF0003A481D300844417804EB440237483030FA
:101F00001044417004EB440134481D30415C04EB43
:101F1000440213308154601CC4B2032CDADB00216C
:101F20002E48418701202E49087054E02B49C98A68
:101F30002C4A52F82100092228493031FEF72AFAAA
:101F400058B129480078401C2749087002202449CC
:101F5000087064202149488302E00320204908706A
:101F600039E01E48408B28BB01201D4908701E48DF
:101F700001780078401C1C4A107007291EDB1748A6
:101F8000C08A401C80B21549C882062813DA002492
:101F90000EE014490122086810491631FEF7FAF9DB
:101FA00008B907E013E0142000F074FD601CC4B20F
:101FB000032CEEDB02E00320094908700BE000204F
:101FC00006490877064908700749087003E00320AE
:101FD0000349087000BF00BF00BF69E7C4000020CC
:101FE000B200002040000020B3000020474A1188C2
:101FF0004A1C464B1A80B1F57A7F0FDB00211A4646
:1020000011804349098B49B14149098B491E404A16
:1020100011831146098B09B9012111773C49C988FF
:10202000052902D100213A4AD1803949896821B174
:1020300037498968491E364A91603549498B21B133
:102040003349498B491E324A51833149896E21B146
:102050002F49896E491E2E4A9166002053E02C4973
:102060006C3151F8201041B129496C3151F82010E0
:10207000491E274A6C3242F820102549883151F810
:10208000201041B12249883151F82010491E204AC0
:10209000883242F820101E49943151F8201041B185
:1020A0001B49943151F82010491E194A943242F8C4
:1020B00020101749AC3151F8201031B11449AC311E
:1020C00051F82020521E41F820201149B83151F812
:1020D000201041B10E49B83151F82010491E0C4A68
:1020E000B83242F820100A49503151F8201041B15D
:1020F0000749503151F82010491E054A503242F824
:102100002010411CC8B20328A9DB70470E00002034
:10211000C4000020042808D14FF0E021096941F0F3
:1021200004014FF0E022116107E04FF0E02109695E
:1021300021F004014FF0E0221161704710B52048F2
:102140000088401C1E4908801E480088401C1D490C
:1021500008801D480088401C1B4908801B480088D7
:1021600020B11A480088401E184908801848008885
:10217000401C80B216490880B0F57A7F1EDB002033
:10218000088014480078C8B1FEF712FA12480068B7
:10219000401C11490860052810D90020086000BFC4
:1021A0000E48006800F4E0600D490843001D0B492B
:1021B0000860BFF3408F00BF00BFFEE710BD000006
:1021C000080000200A0000200C0000203A00002037
:1021D000AC00002000000020040000200CED00E016
:1021E0000000FA0510B51348006840F001001149DD
:1021F000086008464068104908400E494860084693
:1022000000680E4908400B4908600846006820F441
:10221000802008600846406820F4FE0048604FF4C3
:102220001F008860FFF730FC4FF000600449086031
:1022300010BD0000001002400000FFF8FFFFF6FE96
:1022400008ED00E010B50121880700F080F840B1EA
:102250000121880700F06CF802484088401C0149C1
:10226000488010BDC400002010B50121094800F0CD
:102270006EF868B10848008840F4004006490880BC
:102280000121044800F054F80021024800F053F8FE
:1022900010BD000000040040BA0000207FB50546D4
:1022A0000C4601210220FFF791FAADF80450ADF879
:1022B00000400020ADF80600ADF8020069460E4867
:1022C00000F062F8012211460B4800F051F801219C
:1022D000094800F030F81D208DF80C0000208DF822
:1022E0000D0002208DF80E0001208DF80F0003A8CC
:1022F000FFF794F97FBD00000004004010B50121F4
:10230000094800F024F868B10848008840F400400B
:10231000064908800121044800F00AF8002102481B
:1023200000F009F810BD000000080040BC000020CB
:10233000CA430282704721B1028842F00102028042
:1023400004E002884FF6FE731A400280704730B5F1
:102350000246002000230024158A05EA010395891E
:1023600005EA010413B10CB1012000E0002030BDEA
:102370001AB183890B43838102E083898B43838174
:102380007047818470470000002202881D4B9842EC
:102390000ED01D4B98420BD0B0F1804F08D01B4B94
:1023A000984205D01A4B984202D01A4B984204D159
:1023B0004FF68F731A404B881A43174B984207D039
:1023C000164B984204D04FF6FF431A40CB881A436D
:1023D00002808B8883850B8803850A4B98420BD03B
:1023E000094B984208D00E4B984205D00D4B9842AD
:1023F00002D00D4B984201D10B7A038601238382D0
:1024000070470000002C01400034014000040040EF
:1024100000080040000C0040001000400014004084
:1024200000400140004401400048014010B505480B
:10243000008800F4004020B100F0DCF900200149E0
:10244000088010BDBA00002010B540F22551164892
:1024500000F009F9F8B1144800F0C0F9C4B213480B
:10246000008800F40040B0B910480088B0F5C87F7B
:1024700012DA00210E48FFF784FF0C48008818B9D3
:1024800001210B48FFF757FF08490888411C074AFC
:10249000118008490C5405E00448008840F40040CD
:1024A0000249088010BD000000380140BA00002039
:1024B000000400408C01002010B540F22551164860
:1024C00000F0D1F8F8B1144800F088F9C4B213480C
:1024D000008800F40040B0B910480088B0F5C87F0B
:1024E00012DA00210E48FFF74CFF0C48008818B99B
:1024F00001210B48FFF71FFF08490888411C074AC4
:10250000118008490C5405E00448008840F400405C
:102510000249088010BD000000440040BC000020BB
:1025200000080040AC04002010B540F225511648C8
:1025300000F099F8F8B1144800F050F9C4B213480B
:10254000008800F40040B0B910480088B0F5C87F9A
:1025500012DA00210E48FFF714FF0C48008818B962
:1025600001210B48FFF7E7FE08490888411C074A8C
:10257000118008490C5405E00448008840F40040EC
:102580000249088010BD000000480040BE00002045
:1025900000080040CC07002021B1828942F400529B
:1025A000828104E082894DF6FF731A408281704770
:1025B00010B504462048844209D101218803FFF761
:1025C00035F900214FF48040FFF730F932E01B4825
:1025D000844209D101214804FFF708F900214FF492
:1025E0000030FFF703F925E01548844209D10121A5
:1025F0008804FFF7FBF800214FF48020FFF7F6F87E
:1026000018E01048844209D10121C804FFF7EEF810
:1026100000214FF40020FFF7E9F80BE00A4884425C
:1026200008D101210805FFF7E1F800214FF48010DF
:10263000FFF7DCF810BD0000003801400044004006
:1026400000480040004C004000500040024600207E
:10265000B1F5007F00D100BF13880B400BB1012002
:1026600000E00020704770B50246002400230025DA
:10267000002040F66A16B14200D100BFC1F34215F6
:1026800001F01F03012606FA03F3012D02D19689FA
:10269000334006E0022D02D1168A334001E0968ACB
:1026A00033400C12012606FA04F41688344013B1A4
:1026B0000CB1012000E0002070BDF0B503460024FD
:1026C00000260025002040F66A17B94200D100BF5D
:1026D0001846C1F3421401F01F06012707FA06F558
:1026E000012C01D10C3004E0022C01D1103000E0AB
:1026F00014301AB107682F43076002E00768AF4340
:102700000760F0BD2DE9F04786B005460E4600246F
:10271000A24600BFA1460027B08900B100BF2F46E6
:102720002C8A4CF6FF700440F08804432C82AC895C
:102730004EF6F3100440B08831890843718908438C
:102740000443AC81AC8A4FF6FF400440B089044397
:10275000AC8201A8FFF77AF81F48874202D1DDF862
:1027600010A001E0DDF80CA0A88900F4004040B101
:102770000AEBCA0000EB0A1031684900B0FBF1F81F
:1027800007E00AEBCA0000EB0A1031688900B0FBD1
:10279000F1F86420B8FBF0F004012009642101FB8A
:1027A0001089A88900F4004040B1322000EBC90034
:1027B000B0FBF1F000F00700044308E0322000EB2A
:1027C00009106421B0FBF1F000F00F0004432C81EC
:1027D00006B0BDE8F0870000003801400146888857
:1027E000C0F308007047C1F308028280704700BF41
:1027F000FEE700002DE9FC4100260020009001903A
:102800000027AA208DF8000069467C48FDF79CFC53
:10281000044614B9701EBDE8FC81607A552802D0C8
:102820004FF0FF30F7E7002504E0605D3844C7B2A1
:10283000681CC5B20A2DF8DB542F02D04FF0FF30D0
:10284000E9E794F80180A8F1020009287AD2DFE8CC
:1028500000F00C057A8794C3A8B7BD000120684931
:1028600081F8420000208874C4E0A078FF2832D1AB
:1028700000252DE0A17905EB450261481D3010448B
:102880004170E17905EB45025D481D3010448170CF
:10289000A1795B487E304155E179801D4155405D0D
:1028A00000EB4000574901EB8000416854488830F4
:1028B00040F82510001F405D00EB4000514901EB3E
:1028C000800081684E48943040F82510681CC5B2DD
:1028D000032DCFDB30E0A179A07800EB400248481F
:1028E0001D3010444170E179A07800EB400244486B
:1028F0001D3010448170A179A27841487E30815406
:10290000E179A278801D8154A178465C06EB4600EF
:102910003C4901EB80004168A2783948883040F892
:10292000221006EB4600374901EB80008168A2784F
:102930003348943040F82210314840881E303049E6
:10294000088357E048E0A0780A2808DC01202C49D9
:1029500088730220087300204873A078088249E039
:10296000A0780A2808DC0120254988730320087311
:1029700000204873A07808823CE0A078FF280AD1A4
:10298000002505E061791E48A3304155681CC5B299
:10299000032DF7DB04E06179A2781948A330815454
:1029A00028E0A07810B1A078012803D1A0781449BC
:1029B00081F8C400124840881E301149088319E08C
:1029C00001200F4988730020087313E000200C4990
:1029D0008873052008730DE003200B490870FF2061
:1029E0000A4908700648807C062802D10220044962
:1029F000887400BF00BF00200DE700008C0100209C
:102A0000C4000020580000203D0000203E000020AF
:102A100010B5044621460548FFF7E5FE00BF8021BA
:102A20000248FFF713FE0028F9D010BD003801401E
:102A300002E008C8121F08C1002AFAD17047704787
:102A4000002001E001C1121F002AFBD170470000E5
:102A500010B56FF00400FFF75DFB0A4800680A49F3
:102A6000B0FBF1F0094908700846007800EB40011E
:102A7000C1EBC0104FF6FF7101EAC00004490880A5
:102A800010BD00001000002000127A00C0000020DD
:102A9000C20000200146114A12884A434FF0E02349
:102AA0005A6100229A611A46126942F001021A61C3
:102AB00000BF4FF0E022106900F001021AB100F4EB
:102AC0008032002AF5D04FF0E022126922F0010294
:102AD0004FF0E0231A6100229A617047C200002083
:102AE0000146114A12784A434FF0E0235A6100220E
:102AF0009A611A46126942F001021A6100BF4FF052
:102B0000E022106900F001021AB100F48032002ABC
:102B1000F5D04FF0E022126922F001024FF0E023DD
:102B20001A6100229A617047C0000020FFF790FFF1
:102B3000FEF76DFDFDF768FDFEF752FDFEF72AFD7D
:102B40004FF4E13000F014F8FFF712F8FDF760FCE5
:102B50000BE0FDF7E9FF0548408830B103484088A5
:102B6000401E02494880FFF741FAF2E7C400002006
:102B700010B586B0044601210420FEF747FE01216E
:102B800044F20100FEF742FE2948FFF711FD4FF421
:102B90000070ADF8140003208DF8160018208DF891
:102BA000170005A92348FDF768FC4FF48060ADF8D5
:102BB000140048208DF8170005A91E48FDF75DFC9C
:102BC00001940020ADF80800ADF80A00ADF80C0043
:102BD000ADF810000C20ADF80E0001A91448FFF765
:102BE00091FD01211248FFF7D7FC012240F2255147
:102BF0000F48FFF762FD25208DF8000003208DF8B7
:102C000001008DF8020001208DF8030041F61F41FC
:102C10006320FFF743FB0020074908800021074895
:102C2000FFF789FB6846FEF7F9FC06B010BD00000F
:102C30000038014000080140BA00002000040040B4
:102C4000602C000800000020C4000000302A0008AA
:102C5000242D0008C40000202C0E0000402A00088B
:102C60000000000000000000000000000000000064
:102C700000A24A040000000000000000010203045A
:102C80000607080900000000010203040102030412
:102C90000607080902040608010000000000000001
:102CA00000E8000800EC000800F0000800F400084C
:102CB00000F8000800FC000800000000002E93024D
:102CC000002E930201000000C0D40100B05F0E008E
:102CD00002000000C0D4010000350C000300000019
:102CE000C0D4010008930A0004000000C0D4010011
:102CF00090B2080005000000C0D40100109203004B
:102D000006000000A60E0000020000000000000007
:102D100000000000000000000000000000000000B3
:042D200000000000AF
:04000005080000ED02
:00000001FF
