:020000040800F2
:10000000E812002001010008492F00082321000800
:100010001D270008B9060008DD44000800000000A4
:100020000000000000000000000000009532000801
:100030002D0A000800000000F13000081901000836
:100040001B0100081B0100081B0100081B01000820
:100050001B0100081B0100081B0100081B01000810
:100060001B0100081B0100081B0100081B01000800
:10007000C10700081B0100081B0100081B01000844
:100080001B0100081B0100081B0100081B010008E0
:100090001B0100081B0100081B0100081B010008D0
:1000A0001B0100081B0100081B0100081B010008C0
:1000B000AD3A0008D13A0008053B00081B010008D2
:1000C0001B0100081B0100081B0100081B010008A0
:1000D0001B0100081D4100088D410008FD4100087A
:1000E000310A00081B0100081B010008DFF80CD0D2
:1000F00000F042FA0048004751500008E812002082
:100100000648804706480047FEE7FEE7FEE7FEE7B1
:10011000FEE7FEE7FEE7FEE7FEE7FEE74D3A0008F2
:10012000ED000008D2B201E000F8012B491EFBD21D
:1001300070470022F6E710B513460A4604461946F2
:10014000FFF7F0FF204610BD30B505462A460B46A6
:1001500012F8010B13F8014B08B1A042F8D01CB102
:10016000002802D06D1CF1E7284630BD421C10F873
:10017000011B0029FBD1801A704730B50B460146A0
:1001800000202022012409E021FA02F59D4205D336
:1001900003FA02F5491B04FA02F52844151EA2F1E0
:1001A0000102F1DC30BD2DE9F05F054600209246EA
:1001B0009B4688460646814640241BE02846414629
:1001C0004746224600F0F9F953465A46C01A914173
:1001D00010D311461846224600F0E0F92D1A67EBBD
:1001E00001084F4622460120002100F0D7F917EB05
:1001F00000094E41201EA4F10104DFDC48463146CF
:100200002A464346BDE8F09F2DE9FE4F804681EA2D
:100210000300C00F0C46009021F0004123F0004580
:10022000B8EB0200A94105D24046214690461C4643
:100230000B46024623F00040104347D0270DC7F37A
:100240000A00C3F30A510290401A019040286BDA69
:10025000C3F3130040F4801B0098924620B10023A2
:10026000D2EB030A63EB0B0B01985946C0F1400235
:10027000504600F093F906460D4650465946019AFD
:1002800000F0ABF910EB08006141002487EA11523D
:1002900084EAE7731A4340D0009A62B3019A012AB4
:1002A0004FEA075215DC001B61EB02014FF00042E0
:1002B00002EA0752CDE90042001C41F580113246A6
:1002C0002B4600F0ABF903B0BDE8F08F4046214665
:1002D000F9E7001B61EB0201001C41F580130018D7
:1002E0005B412018A2F5001747EB030140EAD570E7
:1002F000B6196D4111E06D084FEA360645EAC07542
:100300004FEA0752001B61EB0201001C41F580110E
:1003100049084FEA30000019514132462B4603B0DC
:10032000BDE8F04F00F06BB90098012240000023B7
:10033000D0EB020263EBE073009821464FEAE074D1
:10034000B8EB000061EB0401E9E783F000435BE7F1
:1003500081F0004158E72DE9FE4F81EA030404F0E3
:10036000004421F0004100944FF0000B23F00043C3
:1003700050EA01045ED052EA03045BD0C3F30A548E
:10038000C1F30A552C44A4F2F3340194A0FB0254A7
:10039000C1F3130141F48011C3F3130343F4801339
:1003A00001FB024400FB034E840A970A44EA81548D
:1003B00047EA8357A4FB076802958D0A05FB07856A
:1003C0004FEA932C04FB0C542705029D4FEA065874
:1003D00047EA1637B5EB08056EEB070C870E920E51
:1003E00047EA811742EA8312A7FB0201B6EB0B0131
:1003F00064EB00042B0D43EA0C335E1844EB1C50F5
:10040000DA465146E7FB0201C5F313044FEA0B330A
:1004100043EA14534FEA0432019C43EA0603A4F171
:100420000C040294009CCDE900B400F0F7F803B08E
:10043000BDE8F08F00200146F9E72DE9F04D81EA93
:10044000030404F0004B21F0004514464FF0000A6D
:1004500023F0004150EA050220D054EA01021DD0E9
:10046000C5F30A570246C5F31303C1F31300C1F3E2
:100470000A5640F4801543F48013A7EB0608101BBE
:10048000D64608F2FD3873EB050002D308F10108E7
:1004900001E092185B41B8F1000F03DA0020014639
:1004A000BDE8F08D00204FF48011064684460EE032
:1004B000171B73EB050705D3121B63EB05030643FC
:1004C0004CEA010C49084FEA300092185B4150EAAF
:1004D0000107EDD152EA030012D082EA040083EA58
:1004E0000501084305D0101BAB4106D201220023B1
:1004F00006E000224FF0004302E06FF001025310CB
:100500001AEB06004CEB085110EB0A0041EB0B0113
:10051000BDE8F04D00F073B8C1F30A52C1F3130106
:1005200040F2FF3341F480119A4202DA0020014682
:10053000704740F233439A42A2F2334202DC524205
:1005400000F03BB800F02AB830B5041E71F1000489
:1005500004DB4FF00044404264EB0101141E73F1D0
:10056000000405DB1C464FF00043524263EB0403DA
:10057000994208BF904230BD064C074D06E0E06846
:1005800040F0010394E8070098471034AC42F6D3DA
:10059000FFF7B0FD6C5500088C550008202A04DBDD
:1005A000203A00FA02F1002070479140C2F1200386
:1005B00020FA03F3194390407047202A04DB203AC5
:1005C00021FA02F00021704721FA02F3D040C2F173
:1005D00020029140084319467047202A06DBCB17BA
:1005E000203A41FA02F043EAE07306E041FA02F3EE
:1005F000D040C2F12002914008431946704710B51F
:10060000141E73F1000408DA401C41F10001921835
:100610005B411A4301D120F0010010BD2DE9F04DDE
:1006200092469B4611B1B1FA81F202E0B0FA80F233
:1006300020329046FFF7B2FF04460F4640EA0A0018
:1006400041EA0B0153465A46084313D0114653EA78
:10065000010019D0C8F140025046FFF7AEFF054631
:100660000E46504659464246FFF798FF084305D0CC
:10067000012004E020463946BDE8F08D0020054306
:1006800046EAE0762C4337430A986305E40AA0EB78
:1006900008000022FD0A44EA47540A3002D500202F
:1006A0000146E9E7010510196941DDE9084500192E
:1006B0006941BDE8F04DA2E700BFFEE730B5044652
:1006C000002535480078F52801D0284630BD32484D
:1006D0004078A04201D02846F8E730490978C91E81
:1006E000C8B22D49491C00F05DF82B498979884230
:1006F00001D02846EAE7052C20D008DC012C0FD0D9
:10070000022C0ED0032C0DD0042C40D115E0092C66
:100710001AD00B2C13D00C2C1FD02D2C37D12EE03F
:1007200000BF00BF1C48007908B9012504E01A4841
:100730000079072800D101252AE000BF00BF164834
:10074000007900B9012523E01348007920B901257B
:100750001148C078124908701AE00F480079012842
:1007600007D00D480079022803D00B4800790328F0
:1007700004D101250848C0780949087008E00648F6
:10078000007918B90448C07800B9012500E000BF1D
:1007900000BF28469AE70000B8000020C8000020EB
:1007A000C900002010B502460B460020002103E0DE
:1007B0005C5C60404C1CE1B29142F9DB10BD000072
:1007C00010B5202000F024F80021084803F0F3F9C8
:1007D0000021074800F02AF8202000F00BF8002242
:1007E0004FF40071014803F001FA10BD002C0140E4
:1007F0001C00024000F0805111B10349086001E083
:1008000002494860704700000404024000000240B2
:1008100000F0805111B10349086001E002494860CD
:1008200070470000040402400000024021B1026849
:1008300042F00102026004E002684FF6FE731A40C3
:100840000260704701684FF6FE721140016000219E
:10085000016041608160C1604B49884208D14A49CA
:100860000839496841F00F01474A083A51608AE067
:1008700045491431884208D143490839496841F053
:10088000F001414A083A51607DE03F4928318842F1
:1008900008D13D490839496841F470613A4A083A3B
:1008A000516070E038493C31884208D136490839F6
:1008B000496841F47041344A083A516063E0324972
:1008C0005031884208D130490839496841F47021D3
:1008D0002D4A083A516056E02B496431884208D1CC
:1008E00029490839496841F47001274A083A51609A
:1008F00049E025497831884208D1234908394968B7
:1009000041F07061204A083A51603CE01F4988423A
:1009100006D1011F096841F00F01021F116032E08A
:100920001A491431884208D11849091F096841F051
:10093000F001164A121F116025E01449283188423F
:1009400008D11249091F096841F470610F4A121F4A
:10095000116018E00D493C31884208D10B49091F4C
:10096000096841F47041094A121F11600BE0074900
:100970005031884207D10549091F096841F47021A7
:10098000024A121F1160704708000240080402402A
:100990001AB103680B43036002E003688B430360F2
:1009A000704710B50022026847F6F0739A430C6A4C
:1009B0008B6823430C6923434C6923438C6923438D
:1009C000CC6923434C6A23438C6A23431A43026055
:1009D000CB6843600B6883604B68C36010BD4160A7
:1009E0007047000008B50121102002F0C9FB4FF448
:1009F0000050ADF8000003208DF8020010208DF8A3
:100A000003006946084801F0F4FA4FF40051064823
:100A100001F085FB032004F0CFFA4FF400510248A7
:100A200001F07BFB08BD0000001001407047000092
:100A300070B500240025002634E01E480068002818
:100A400030D002F057FB0446FA2C00D12BE0C82C22
:100A500003DBFA2C01DA012517E0552C0ADBC82C40
:100A600008DA01201449087014480078401C134922
:100A7000087018E0322C03DB552C01DA012604E063
:100A80000A2C02DB322C00DA00265DB10C4800682B
:100A900040000B49086008460068304408600020A8
:100AA00006490870C9E700BF4FF4805000F00AF80B
:100AB00070BD000030012142B1000020B0000020D4
:100AC000AC00002001490860704700001404014098
:100AD0001CB5044601208DF80000200A8DF80100A5
:100AE000E0B28DF8020001208DF8030000208DF89F
:100AF00004006946052003F0E5FA1CBD1CB5044658
:100B000002208DF80000200A8DF80100E0B28DF877
:100B1000020001208DF8030000208DF804006946D2
:100B2000052003F0CFFA1CBD1CB5044603208DF848
:100B30000000200A8DF80100E0B28DF802000120CB
:100B40008DF8030000208DF804006946052003F0AD
:100B5000B9FA1CBD30B5044604254FF4302000F02E
:100B600083F80546042D17D10C48006940F00200B7
:100B70000A49086108464461006940F04000086184
:100B80004FF4302000F070F805460448006941F643
:100B9000FD71084001490861284630BD002002402F
:100BA00004200B49C96801F0010109B101200EE0E0
:100BB0000749C96801F0040109B1022007E00449AE
:100BC000C96801F0100109B1032000E0042070475A
:100BD000002002400348006940F08000014908619C
:100BE000704700000020024070B504460D46042600
:100BF000F00200F039F80646042E11D109480069C8
:100C000040F00100074908612580F00200F02CF84F
:100C100006460448006941F6FE7108400149086132
:100C2000304670BD0020024001460888704730B54C
:100C300003460C461546002207E003EB4200FFF78F
:100C4000F3FF24F81200501C82B2AA42F5DB30BD3B
:100C500002480349486003484860704723016745DC
:100C600000200240AB89EFCD00B502460423FFF718
:100C700097FF034603E0FFF793FF0346521E012B45
:100C800001D1002AF7D102B90523184600BD0000A2
:100C90002DE9F05F054689461746B5F1006F04D38C
:100CA00005EB47001849884203D34FF0FF30BDE8F9
:100CB000F09FFFF7CDFFA5F1006A4FEA9A284FF0A9
:100CC000006000EB882B5846FFF744FF0646042ED1
:100CD00000D010E000240BE039F8141005EB4400BC
:100CE000FFF782FF0646042E00D004E0601C84B2A9
:100CF000BC42F1DB00BFFFF76DFF042E02D04FF0C6
:100D0000FF30D4E70020D2E7000001081CB5052021
:100D10008DF8000000208DF801008DF802008DF89C
:100D200003008DF804006946052003F0CBF91CBDD3
:100D30001CB5044604208DF80000200A8DF801003F
:100D4000E0B28DF8020000208DF803008DF8040059
:100D50006946052003F0B6F91CBD1CB50C208DF8C2
:100D6000000000208DF801008DF802008DF80300CE
:100D70008DF804006946052003F0A4F91CBD0000AD
:100D800008B50121042002F0FBF91020ADF80000A5
:100D900028208DF8030003208DF8020069460A48D8
:100DA00001F027F90121042002F0EAF92020ADF832
:100DB000000003208DF8020010208DF80300694622
:100DC000014801F016F908BD00080140F8B50025FA
:100DD0004FF6FF76F448007C072880F0A886DFE80D
:100DE00010F007003800B100CC036404A606F0053B
:100DF000ED48C06808B100F09BBEEC4800680028D0
:100E000026D0EBA004F0ACF9E74890F8550080B983
:100E1000EEA004F0A5F90020E34981F86D00886692
:100E2000012081F855000846C08800F6B830C86037
:100E3000E1E7DD48C088FA30DB49C8602021EA4894
:100E400001F06DF90120D84908740020E7490870C5
:100E5000D1E7D548C068002873D1E54890F825004F
:100E600090B90120E24981F825004FF49661E048ED
:100E7000C161CD480068DE494860002048700846DE
:100E800042690120904707E0C7480068D849886058
:100E90000846426901209047D548407801280ED184
:100EA000D3484088FE2802D1D2A004F059F9D04896
:100EB000046A26780020CE4981F8250000E09AE7F0
:100EC000CB484088012819D1C948046A26783146A0
:100ED000CDA004F045F90720B34981F86D0008461C
:100EE000C08800F6B830C86000204874087481F8E3
:100EF00055002021BC4801F010F922E0CDA004F0FB
:100F00002FF9A948C0886430A749C860B74801785C
:100F10000078401CB54A1070022912DB0920A24952
:100F200081F86D00102081F86C002021AE4801F09E
:100F3000F4F800209C4908740846C08800F5FA704F
:100F4000C86058E79848407C082876D2DFE800F06F
:100F500004BE5AFCFB75FAF99348C08A082820DDC4
:100F6000BBA004F0FDF89048C38ABDA23221C3485B
:100F700003F0C6FAC14804F0F3F8C1A004F0F0F899
:100F8000C0A004F0EDF80920874981F86D00102019
:100F900081F86C00002008740846C088FA30C860E8
:100FA000F8BD8248006800282BD07F48C068002820
:100FB00027D1A7A004F0D4F87B48C38AA8A2322185
:100FC000AE4803F09DFAAD4804F0CAF8B0A004F0B2
:100FD000C7F82021844801F0A2F8FA207249C860BD
:100FE0000020824908707048C08A401C6E49C8823F
:100FF000022048740020AD49087003206A4981F836
:101000006D00B8E26848C06800285ED1784890F862
:10101000250098B90120764981F825004FF49661A2
:101020007348C16160480068714948600020487099
:10103000084642690020904708E09BE25A48006851
:101040006B498860084642690020904768484078AC
:1010500001280BD166484088FE2802D165A004F023
:101060007FF80020624981F8250000E083E28F4884
:101070000078401C8D4908705D484088012816D1D1
:101080008BA004F06DF8894803788EA20A217B4872
:1010900003F036FA794804F063F879A004F060F8B8
:1010A0008BA004F05DF801203F4948740DE08CA04E
:1010B00004F056F87D480078052803DC64203A499E
:1010C000C86002E001203849487454E23648C068DC
:1010D00000285DD1464890F82500D8B90320324950
:1010E00081F86D000120424981F8250041F27071BC
:1010F0003F48C1612C4800683D4948600020487065
:101100000846046A2848807D20700846426903200A
:1011100090470CE03648046A2348807D20702248BE
:101120000068334988600846426903209047304888
:101130004078012813D12E484088FE2807D12DA0E1
:1011400003E00BE287E127E10BE104F009F828480E
:10115000046A26780020264981F8250000E00AE28A
:1011600023484088012814D162A003F0F9FF04202D
:101170000D4981F86D0000201C4908704FF49670ED
:101180000949C860032048742021174800F0C5FFB2
:10119000E6E0164801780078401C144A10700229D5
:1011A00000DBB1E0C7E00000EC00002010012142AC
:1011B000544F5543485F4D415443485F494E49544D
:1011C00020D3D0B0B4CFC20A00000000544F554322
:1011D000485F4D415443485F494E495420D6B4D0EE
:1011E000D0B9D8CBF80A000000080140A4000020C4
:1011F000D4010020B3ACCAB1CDCBB3F6A1A3A1A357
:10120000A1A3A1A3A1A30A00544F5543485F4D4198
:101210005443485F414741494E20C6A5C5E4B3C980
:10122000B9A6A3AC6C6F636BBFAACBF8204944206E
:1012300025640A00544F5543485F4D415443485F6D
:10124000414741494E20C6A5C5E4CAA7B0DC0A0003
:10125000544F5543485F4144445F55534552200025
:101260005379735461736B2E75313646696E6765B9
:101270007266436E74203A2025640A005C010020E7
:101280000A000000D3C3BBA7D2D1C2FA0A000000F3
:10129000BFAAC6F4D6B8CEC6C4A3BFE9B5E7D4B4D6
:1012A0002D2D3ECCEDBCD30A00000000A50000208F
:1012B000C9E8D6C3D6D8B8B4C4A3CABDB3C9B9A601
:1012C0000A000000434E54203A2025640A00000022
:1012D000B5DAD2BBA3ACB2C9BCAFD6B8CEC60A0091
:1012E000C9E8D6C3D6D8B8B4C4A3CABDCAA7B0DCAF
:1012F0000A000000B5DAD2BBA3ACB2C9BCAFD6B805
:10130000CEC6B3C9B9A60A00EDA003F029FF092093
:10131000F64981F86D00102081F86C000846C08AFB
:10132000401EC8822021F24800F0F7FE0020EF495D
:101330000874487414E0EFA003F012FFF248037839
:10134000AFF280020A21F14803F0DAF8EF4803F027
:1013500007FFAFF2D40003F003FF6420E349C86045
:1013600009E1EB480068B0B1E048C06898B92021B5
:10137000DF4800F0D4FEFA20DC49C8600020E249D2
:101380000870DA48C08A401CD849C88204204874D2
:101390000020E0490870EEE0D448C068002859D128
:1013A000DD4890F8250090B90120DB4981F825003F
:1013B0004FF49661D848C161CC480068D64948606E
:1013C00000204870084642690020904707E0C7485F
:1013D0000068D14988600846426900209047CE489D
:1013E000407801280CD1CC484088FE2803D1AFF2C8
:1013F000FC1003F0B5FE0020C74981F8250000E08D
:10140000B9E0C4480078401CC2490870C24840880E
:10141000A8B9C2A003F0A4FEBE480378AFF25C12E4
:101420000A21BA4803F06CF8B84803F099FEAFF20D
:10143000B01003F095FE0620AC4948740AE0B548A8
:101440000078082803DC3220A849C86002E00620A2
:10145000A64948748FE0A548C06800287DD1AE48F1
:1014600090F82500B8B90120AB4981F8250041F278
:101470007071A948C1619D480068A7494860002073
:1014800048700846046A9948807D20700846426981
:10149000032090470CE0A048046A9448807D2070A7
:1014A000924800689C49886008464269032090473A
:1014B0009948407801280FD197484088FE2803D1E9
:1014C000AFF2D02003F04CFE9348046A2678002047
:1014D000914981F8250000E04DE08F4840880128BF
:1014E0000ED194A003F03CFE0820804981F86D00E5
:1014F0000120C883072048744FF49670C8602CE020
:10150000814801780078401C7F4A107002291EDB58
:101510008DA003F025FE92A003F022FE092073495E
:1015200081F86D00102081F86C00C98A481E00F017
:10153000CBFB6E48C08A801E6C49C88220216C4853
:1015400000F0EBFD002069490874487405E08BA0A9
:1015500003F006FE3C206549C8600CE06348C068A3
:1015600038B92021624800F0D8FD00205F49087496
:10157000487400E000BF00BFDAE25C48407C20B164
:10158000012812D007287DD180E05848C06858B99A
:101590002021574800F0C3FD00205B49087001205E
:1015A00052494874FA20C8607DE05048C06800B1D4
:1015B00079E0594890F82500B8B90120564981F8DA
:1015C000250041F270715448C16148480068524991
:1015D0004860002048700846046A4448807D2070B6
:1015E00008464269052090470CE04B48046A3F4892
:1015F000807D20703D480068474988600846426900
:10160000052090474448407801280FD1424840883F
:10161000FE2803D1AFF2244003F0A2FD3E48046A45
:10162000267800203C4981F8250000E03BE03A485C
:10163000408801280FD157A003F092FD08202B49C4
:1016400081F86D000020C8820120C88307204874FB
:101650006420C86019E02C480078401C2A490870B2
:1016600064202249C8602848007803280DDB4FA079
:1016700003F076FD09201D4981F86D00102081F8E6
:101680006C0000E00EE0072048740CE01748C068CA
:1016900038B92021164800F040FD00201349087495
:1016A000487400E000BF00BF42E21048407C20B117
:1016B000052803D0062802D1D0E083E0AAE07DE12E
:1016C000B5DAD2BBA3ACB2C9BCAFD6B8CEC6CAA736
:1016D000B0DCA3ACB3ACB9FDD7EEB4F3B4CECAFD65
:1016E000A3ACCDCBB3F6CCEDBCD30A00EC0000200C
:1016F00000080140B5DAD2BBA3ACB2C9BCAFD6B8C2
:10170000CEC6CAA7B0DC2000A40000205C010020E7
:1017100010012142A5000020D4010020322E20C952
:10172000E8D6C3D6D8B8B4C4A3CABDB3C9B9A60A4B
:1017300000000000B5DAB6FEA3ACB2C9BCAFD6B8A3
:10174000CEC6B3C9B9A60A00B2C9BCAFD6B8CEC618
:10175000CAA7B0DCB3ACB9FDB4CECAFD0A00000024
:10176000C9BEB3FDB5DAD2BBB4CEB1A3B4E6B5C43D
:10177000A3ACCDCBB3F6CCEDBCD30A00B2C9BCAFA1
:10178000D6B8CEC6CAA7B0DCA3ACD6D8D0C2B2C930
:10179000BCAF0A00C9BEB3FDD5FBB8F6D6B8CEC6FD
:1017A000BFE2A3ACB3C9B9A60A000000C9BEB3FD2D
:1017B000D5FBB8F6D6B8CEC6BFE2A3AC20CAA7B058
:1017C000DC0A0000DC48C08A48B9DCA003F0C8FC91
:1017D00041F27070D849C8600220087419E0D648F8
:1017E000C38AAFF284523221E04802F089FEDF481A
:1017F00003F0B6FCDEA003F0B3FC0220CE4981F872
:101800006D000520487441F27070C8600020DE4908
:101810000870D4E0DD48006878B1DDA003F0A0FCDA
:10182000C548C088FA30C449C8602021DE4800F0AD
:1018300076FC0620C04948740FE0BF48C06860B914
:10184000DAA003F08DFC0020BB490874487409201D
:1018500081F86D000C2081F86C00B0E0B648C068DB
:10186000002870D1D84890F8250090B90120D649B9
:1018700081F825004FF49661D348C161AE480068F5
:10188000D1494860002048700846426901209047CD
:1018900007E0A9480068CC498860084642690120F1
:1018A0009047C948407801280FD1C7484088FE2892
:1018B00003D1AFF2C06003F053FCC348046A26783A
:1018C0000020C14981F8250000E078E0BE4840884A
:1018D00001284AD1BC48046A2678012E34D0022E51
:1018E00032D0BAA003F03CFC3346C2A232219F485A
:1018F00002F006FE9D4803F033FC9BA003F030FC91
:101900008D48C08864308C49C8609F480178007851
:10191000401C9D4A107002294FDBBAA003F020FC46
:101920000920854981F86D00102081F86C00202184
:101930009D4800F0F2FB00207F4908740846C088EB
:1019400000F5FA70C86038E0B8A003F009FC202167
:10195000954800F0E2FB0320774981F86D000220F2
:10196000087400204874C86027E0AFF2387003F0B4
:10197000F7FB7148C08864306F49C86082480178BD
:101980000078401C804A1070022916DB9DA003F0ED
:10199000E7FB0920684981F86D00102081F86C0090
:1019A0002021814800F0B9FB002063490874487485
:1019B0000846C08800F5FA70C86000E000BF00BFAC
:1019C000B6E05D48C06808B1FFF7EABA5A48407C03
:1019D00030B101280AD007287BD008287AD195E0B9
:1019E00005205549C860012048749EE05248C068EF
:1019F00000B19AE0744890F8250090B9012072492E
:101A000081F825004FF496616F48C1614A4800682B
:101A10006D4948600020487008464269022090479E
:101A200007E0454800686849886008464269022026
:101A300090476548407801280CD163484088FE28CB
:101A400003D1AFF6500003F08BFB00205E4981F814
:101A5000250000E069E05C48046A2578681CB8B39A
:101A600035480095C38A77A23221404802F048FDEC
:101A70003E4803F075FB3CA003F072FB08202E49A2
:101A800048740846C08AA84230D079A003F068FBA9
:101A90000920294981F86D00102081F86C000A2D79
:101AA00019DC0020B8B178A003F05AFB2248C38AA1
:101AB000AFF6540232212D4802F022FD2B4803F0EC
:101AC0004FFB29A003F04CFB1B49CD820120C883AA
:101AD0000CE00CE028E06FA003F042FB0320164965
:101AE000087400204874C8820120C8831DE0124891
:101AF000C06850B96A480078142803DB01200E49F9
:101B0000487402E000200C4948740EE00A48C0689E
:101B100048B92021244800F000FB00200649087441
:101B200048745F49087000E000BF00BF00E000BFDC
:101B300000BF00BF48E70000EC000020544F5543B1
:101B4000485F4B45595F53484F525420C3BBD3D0D5
:101B5000524F4F54D3C3BBA7A3ACD6B1BDD3CCED2A
:101B6000BCD3CEAA524F4F540A0000005C010020A3
:101B7000D2D1BEADD3D0524F4F54A3ACC8B7C8CF0B
:101B8000524F4F540A000000A400002010012142CF
:101B9000544F5543485F5355425F414741494E209A
:101BA000D3D0B0B4CFC20A0000080140C3BBD3D029
:101BB000CAB6B1F0B5BD524F4F5420B3ACCAB1CD87
:101BC000CBB3F6200A000000D4010020544F554347
:101BD000485F4D415443485F414741494E20C6A5A7
:101BE000C5E4CAA7B0DC09B7C7524F4F54D3C3BB33
:101BF000A7000000757365724944203A2025640AE5
:101C000000000000544F5543485F4D415443485F26
:101C1000414741494E20C6A5C5E4CAA7B0DCB3ACD4
:101C2000B4CEA3ACCDCBB3F6200A0000C8B7C8CF62
:101C3000CEAA524F4F54A3ACCCEDBCD3D6B8CEC62F
:101C40000A0000005379735461736B2E7531364668
:101C5000696E67657266436E74203A2025640920B8
:101C60007265616420636E743A0925640A0000009D
:101C7000B1A3B4E6B5C4D3EBB6C1C8A1B5C4B2BB79
:101C8000C6A5C5E40A000000B1A3B4E6D0C2D6B52B
:101C900020000000C8ABB2BFC7E5BFD50A000000F6
:101CA000A50000200021064A1180002003E0002149
:101CB000044A1154401CB0F5C87FF8DB704700009F
:101CC000B40000201C05002010B504462046FFF794
:101CD0002FF80420FEF7F2FC10BD00002DE9F843B8
:101CE00007468846F5208DF8000000208DF8010099
:101CF0004446266A6E48007830B101287DD002281B
:101D000079D0032878D1C3E000206070072F6CD20F
:101D1000DFE807F0040D161F575B640065A003F0B1
:101D20001FFA00F00BF92D20674908705DE067A0ED
:101D300003F016FAFFF711F80C206349087054E01D
:101D400067A003F00DFA00F00CF909205E49087055
:101D50004BE0A06868490968401A642800D244E052
:101D60006648017866A003F0FBF9A0686249086044
:101D70006248007806281CD2DFE800F0030A0B0C4A
:101D80000D143078FEF7A4FE01204F49087011E0D1
:101D900000BF00BF00BF02204B4908703078FEF73B
:101DA000ADFE07E00320484908703078FEF7BCFE1E
:101DB00000E000BF00BF51480078401C4F49087048
:101DC00013E00B20404908700FE053A003F0C8F95E
:101DD00005203D490870FEF799FF06E03078FEF7D0
:101DE000A7FF04203849087000BF00BF0120304918
:101DF000087059E001E029E055E04B48008800F404
:101E00000040B8B100204849088069464748FEF7BD
:101E10009BF98146B8F1000F17D0002504E019F8AE
:101E20000500434948556D1C082DF8DB0220204968
:101E300008700AE0A0686168411AE069814204D92B
:101E4000FE20608003201A4908702DE01E480078AB
:101E5000FEF734FC6080032F0ED128480078052857
:101E60000ADC6088012803D100201149087006E0CF
:101E700003200F49087002E003200D4908704FF459
:101E800000512C4800F049F90C200F4908700BE074
:101E900001206070284800783070002017490870D1
:101EA0000349087000E000BF00BF0020BDE8F883D0
:101EB000CB00002066696E6765722020C4A3CABD8E
:101EC000C9E8D6C30A000000CA00002066696E6730
:101ED00065722020CBD1CBF7D6B8CEC60A00000061
:101EE00066696E6765722020B6C1C8A1D6B8CEC635
:101EF000B8F6CAFD0A000000D0000020CC00002087
:101F000066696E6765722020D7A2B2E1D6B8CEC6E8
:101F1000A3BA202564200A0066696E6765722020D6
:101F2000C7E5BFD5200A0000B40000201C05002032
:101F3000B800002000100140C90000201CB52D2071
:101F40008DF8000000208DF801008DF802008DF85A
:101F500003008DF804006946052002F0B3F8002064
:101F60001CBD1CB509208DF8000000208DF8010073
:101F70008DF802008DF803008DF8040069460520F5
:101F800002F0A0F800201CBD0EB50121084601F0AA
:101F9000D7F800F01DF84FF47A70ADF80400472030
:101FA000ADF800000020ADF8020069464FF0804017
:101FB00002F036F80121880701F0FAFD01221146EE
:101FC000900701F022FF0121880701F0F4FD0EBD0A
:101FD00008B51C208DF8000000208DF801000220BB
:101FE0008DF8020001208DF80300684600F0B4FF70
:101FF00008BD2DE9F04102460025002600200023FF
:102000000024002791F803C00CF00F0591F803C0DD
:102010000CF0100CBCF1000F03D091F802C04CEA98
:10202000050591F800C0BCF1000F31D01468002004
:102030002BE04FF0010C0CFA00F3B1F800C00CEAF1
:1020400003069E4220D183004FF00F0C0CFA03F7D9
:10205000BC4305FA03FC4CEA040491F803C0BCF14C
:10206000280F06D14FF0010C0CFA00FCC2F814C086
:102070000AE091F803C0BCF1480F05D14FF0010C04
:102080000CFA00FCC2F810C0401C0828D1D3146020
:10209000B1F800C0BCF1FF0F34DD546800202EE021
:1020A00000F1080C4FF0010808FA0CF3B1F800C079
:1020B0000CEA03069E4221D183004FF00F0C0CFA6C
:1020C00003F7BC4305FA03FC4CEA040491F803C08F
:1020D000BCF1280F05D100F1080C08FA0CF8C2F881
:1020E000148091F803C0BCF1480F07D100F1080C2F
:1020F0004FF0010808FA0CF8C2F81080401C0828BC
:10210000CED35460BDE8F0810246002093680B40B6
:102110000BB1012000E00020704741617047016170
:10212000704700BFFEE700004CF6CC400149086054
:10213000704700000030004010B500F013F810BDEB
:1021400070B505460C4645F2555000F01FF828467C
:1021500000F010F8204600F013F800F003F8FFF745
:10216000E3FF70BD4AF6AA200149086070470000ED
:1021700000300040014948607047000000300040D6
:102180000149886070470000003000400149086044
:10219000704700000030004008B50121042000F025
:1021A000EFFF4FF40040ADF8000003208DF802006F
:1021B00048208DF8030069460148FFF71AFF08BD63
:1021C0000008014010B50024354890F8600005284B
:1021D00062D2DFE800F00311364552004FF40041AF
:1021E0003048FFF791FF30B941F270702C494866D2
:1021F000012081F8600050E04FF400412948FFF7CA
:1022000083FF00B949E02648406E41F270710C1A14
:102210002348007C00B110BD282C04DA002020499E
:1022200081F860000CE040F6B830844204DA022005
:102230001B4981F8600003E00320194981F8600020
:102240002BE019A002F08CFF04201549087400202F
:102250004874042081F860004FF4C87048661CE0A0
:1022600015A002F07DFF03200D490874042081F8B9
:1022700060004FF4C87048660FE00948406E10B91E
:102280000748007C00B108E00FA002F069FF0020C1
:10229000034981F8600000E000BF00BF00BFBAE75B
:1022A000EC00002000080140B6CCB0B4A3ACCCEDEB
:1022B000BCD3D3C3BBA70A00B3A4B0B4A3ACC9BEFC
:1022C000B3FDD3C3BBA70A002D2D2D2D2DD6D8C607
:1022D000F4B0B4BCFCC8CECEF12D2D2D2D2D0A00AE
:1022E00008B50121042000F04BFF40F20110ADF8C9
:1022F000000003208DF8020010208DF803006946CD
:102300000648FFF776FE01210448FFF706FF4FF469
:1023100080710248FFF701FF08BD0000000801407E
:1023200010B5724890F86D000A2877D2DFE800F007
:10233000051E465E7DDADA3AA0AF6C48806E00B1C9
:10234000D1E002F0F7FF0020694908706949087080
:10235000664890F8550020B90720644981F86D005F
:1023600003E00120614981F86D00BCE05F48806EA8
:1023700000B1B8E096205D4988665D480078052880
:1023800005DD02F0D7FF002059490870ABE01021AD
:102390005748007803F098F855480078401C544995
:1023A0000870A0E05148806E00B19CE0102003F05E
:1023B000D5F84FF0FF304D49886694E04B48806E69
:1023C00000B190E0F020494988664A48007838B169
:1023D0001021002003F078F800204649087004E03E
:1023E00001204449087002F0A5FF7CE03F48806E60
:1023F00000B178E0F0203D4988663E48007870B131
:1024000002F098FF1021002003F05EF81021012057
:1024100003F05AF800203749087005E062E0012017
:102420003449087002F07EFF5DE03048806E00B1F4
:1024300059E0F0202D4988662E48007888B102F0D6
:1024400079FF1021002003F03FF81021012003F054
:102450003BF81021022003F037F8002025490870CE
:1024600005E0012023490870022002F05BFF3AE0FA
:102470001E48806E00B136E04FF4FA601B49886652
:10248000002081F86D00102003F068F82BE0174859
:10249000806E00B127E0154890F86C0058B9002014
:1024A0001349087013490870104981F86D004FF402
:1024B000FA70886617E0A0200C498866084690F8F4
:1024C0006C0000F0010010B102F034FF02E01020B7
:1024D00003F044F8054890F86C00401E034981F869
:1024E0006C0000E000BF00BF10BD0000EC00002049
:1024F000A6000020A70000207047000008B50121B9
:10250000042000F03DFE4FF48050ADF800000320A1
:102510008DF8020010208DF8030069460448FFF78B
:1025200068FD4FF480510248FFF7F9FD08BD000037
:102530000008014010B5564890F85400052876D29E
:10254000DFE800F0033455768A00514890F85500D2
:102550004F4991F85610884227D04D4890F85500C1
:1025600090B904204A498865012081F85400084642
:1025700090F8550081F856004FF47A60C865012143
:102580004448FFF7CCFD10E0414890F85500404921
:1025900081F856000846C08832308865032081F8EB
:1025A000540001213B48FFF7B8FD6EE03848806DCC
:1025B000E0B94FF400613748FFF7A6FD00B164E0D1
:1025C00035A002F0CDFD042031490865062081F8D0
:1025D0004400022081F85400C1022E48FFF79DFDFF
:1025E0002B48C08800F5FA70294988654DE02848D5
:1025F000806D00B149E02EA002F0B2FD4FF4805191
:102600002448FFF78CFD0020214981F8540008463A
:10261000007E062801D10420087600202A4908708F
:1026200002202A4908700020294908702DE02BE07B
:102630001748806D00B128E026A002F091FD4FF40C
:1026400080511448FFF769FD0420114981F85400B6
:102650004FF4FA70886518E00D48806D00B114E001
:102660004FF480510B48FFF75AFD0948C0883230BB
:1026700007498865002081F854004FF448700864C9
:10268000002081F8440000E000BF00BF10BD000042
:10269000EC00002000080140206C6F636B20BFAA93
:1026A000CBF8A1A3A1A3A1A3A1A3A1A30A00000009
:1026B000206C6F636B20CDA3D6B9BFAACBF8D0C571
:1026C000BAC5B7A2CBCD0A003500002036000020E5
:1026D00034000020206C6F636B20BFAAB9D8CBF800
:1026E000A1A3A1A3A1A3A1A3A1A30A0010B504467D
:1026F000204601F0F5FE10BD10B501F051F8FFF7CE
:1027000061FDFEF763FB00F00BF800F067FCFFF7DC
:1027100011FFFFF7F1FEFFF703FE10BD00BFFEE75C
:1027200010B5FE4890F8440009286FD2DFE800F0A9
:1027300005426EDC6EF0EEEDEC00F84890F84600D5
:10274000022828D10620F54981F848000846C088AB
:1027500091F8481001EB4101F14A02EB810149680F
:10276000084400F51670ED49C864012081F8440062
:10277000084690F8460081F84700EAA002F0F0FC15
:10278000ECA002F0EDFC0220E44981F845000120B4
:1027900081F83B000DE00620E04981F84400052067
:1027A00081F845000020C864084690F8460081F88A
:1027B000470051E3D94890F84500022802D0052887
:1027C0007ED14AE04FF40061E148FFF79DFCF0B98B
:1027D000E0A002F0C5FCE5A002F0C2FCE7A002F018
:1027E000BFFC0520CD4981F84400042081F8450054
:1027F0000846C08891F8481001EB4101C84A02EB35
:10280000810149680844C549C86425E023E3C348F9
:10281000C06C08BBDAA002F0A3FCDEA002F0A0FCB2
:10282000D6A002F09DFC0520BC4981F84500084671
:10283000C18890F8480000EB4000B94A02EB8000E4
:10284000406800F5966001EB400000F51670B34952
:10285000C864022081F83B0044E04FF40061BC48AA
:10286000FFF752FCD0B9CFA002F07AFCD3A002F05F
:1028700077FC0520A94981F84400072081F845002C
:102880000846C08891F8481001EB4101A44A02EBC8
:10289000810149680844A149C86421E09F48C06C8F
:1028A000F0B9C0A002F05CFCC9A002F059FC032002
:1028B0009A4981F844000020C9490870012000E0CD
:1028C0000FE0C84908700320C74908700020C749B5
:1028D00008709248007E062802D103208F490876AE
:1028E00000E000BF00BFB7E205208C4981F844003A
:1028F000042081F84500084690F8460081F847001A
:10290000BBA002F02DFCA7E297E295E27EE2FFE792
:10291000824890F84500801E06287AD2DFE800F051
:102920000344A7C2FCFB7D4890F85400012807D15E
:1029300003207A4981F83B00012081F83C0063E2E2
:102940007648C06C78BBB5A002F00AFCB8A002F0D3
:1029500007FC0320714981F84500A148007801284F
:102960000FD10846C08891F8481001EB41016C4A2C
:1029700002EB81014968084400F516706749C86494
:102980000DE06648C088654991F8481001EB4101A7
:10299000634A02EB8101496808446049C864012028
:1029A0005E4981F83B002FE25C4890F85400012812
:1029B00006D10320594981F83B00012081F83C00F1
:1029C0004FF400616248FFF79FFB002834D19AA0C2
:1029D00002F0C6FB9EA002F0C3FB504890F85400E2
:1029E000012800D110E24D4890F846004B4991F87B
:1029F000471088420ED090A002F0B2FB99A002F0DE
:102A0000AFFB0420454981F83B00002081F84400D9
:102A1000FAE1F8E10420414981F845000846C08800
:102A200091F8481001EB41013D4A02EB81014968F0
:102A300008443A49C86419E03848C06CB0B97EA06F
:102A400002F08EFB8AA002F08BFB0420334981F850
:102A500045000846C08891F8481001EB4101304A12
:102A600002EB8101496808442C49C864CCE12B4839
:102A700090F85400012807D10320284981F83B0031
:102A8000022081F83C00BFE12448C06C48B97EA018
:102A900002F066FB81A002F063FB05201F4981F86C
:102AA0004500B1E180A002F05BFB84A002F058FB7E
:102AB0001A4890F85400012807D10320174981F8DB
:102AC0003B00022081F83C009EE145480078012847
:102AD00010D11248C088114991F8481001EB41010A
:102AE0000F4A02EB81014968084400F516700B4952
:102AF000C8640DE00948C088084991F8481001EB06
:102B00004101074A02EB8101496808440349C8644E
:102B100002200249D6E058E1DAE00000EC00002093
:102B2000500000204D4F544F5F53544154455F496E
:102B30004E495400C9CFC9FDA3ACD5FDD7AA20C8C2
:102B4000A5D5D2D4ADB5E3A1A3A1A30A000000008E
:102B5000000801404D4F544F5F53544154455F4668
:102B6000494E445F5A45524F20000000D5FDD7AA78
:102B700020D5D2B5BDD4ADB5E3A3AC000A000000AA
:102B80004D4F544F5F53544154455F46494E445F47
:102B90005A455200D5FDD7AA20C3BBD3D0B5BDD46A
:102BA000ADB5E3004D4F544F5F53544154455F461C
:102BB000494E445F5A45524F00000000B7B4D7AAAF
:102BC00020D5D2B5BDD4ADB5E3A3AC0A000000005A
:102BD000B7B4D7AAC3BBD3D0B5BDD4ADB5E30A0053
:102BE0003000002035000020360000203400002096
:102BF0000A2D2D2D2D2D2D2D2D2D2D2D2D2D2D2D28
:102C0000D5FDB3A3D4CBD0D0D7B4CCAC2D2D2D2DA6
:102C10002D2D2D2D2D2D2D0A000000004D4F544F30
:102C20005F5355425F53544154455F555000000077
:102C3000D5FDD7AA0A000000204D4F544F5F5355D1
:102C4000425F53544154455F5A45524F5F52000012
:102C5000D5FDD7AA20D5D2B5BDD4ADB5E3A3AC0A76
:102C600000000000D7B4CCACB8C4B1E40A00000046
:102C7000D5FDD7AA09C3BBD3D0D5D2B5BDD4ADB588
:102C8000E3A3AC0A000000004D4F544F5F53554280
:102C90005F53544154455F55505F4600BCCCD0F85B
:102CA000D5FDD7AAA3AC0A004D4F544F5F535542F0
:102CB0005F53544154455F444F574E00B7B4D7AAB1
:102CC000A3AC0A0081F83B00062081F845009BE098
:102CD000624890F85400012806D103205F4981F82A
:102CE0003B00022081F83C004FF400615C48FFF794
:102CF0000BFAB0BB5BA002F033FA60A002F030FA2E
:102D0000564890F85400012800D17DE0534890F8CF
:102D10004600524991F8471088420ED051A002F067
:102D20001FFAAFF2C00002F01BFA04204B4981F8F1
:102D30003B00002081F8440066E00720474981F805
:102D400045000846C08891F8481001EB41014E4A01
:102D500002EB81014968084400F516703F49C864D8
:102D600032E0FFE73D48C06C70BB48A002F0F8F9C4
:102D70004CA002F0F5F9394890F85400012800D130
:102D800042E0364890F84600344991F847108842AE
:102D900009D00420314981F83B00002081F83C0033
:102DA00081F8440030E007202C4981F845000846AE
:102DB000C08891F8481001EB4101334A02EB8101D0
:102DC000496808442549C8641EE0244890F8540026
:102DD000012807D10320214981F83B00012081F817
:102DE0003C0011E01D48C06C60B933A002F0B8F996
:102DF00037A002F0B5F939A002F0B2F90220174964
:102E000081F8450000E000BF00BF25E04FF40061FD
:102E10001348FFF779F920B1104890F83B000428D7
:102E200009D137A002F09CF904200C4981F83B003D
:102E3000082081F844000FE00EE0084890F84600B2
:102E4000064991F84710884204D00020034981F8D0
:102E5000440001E000E000BF00BF10BDEC00002016
:102E600000080140204D4F544F5F5355425F53546B
:102E70004154455F5A45524F5F4C0000D5D2B5BD15
:102E8000D4ADB5E3A3AC0A00500000204D4F544F21
:102E90005F5355425F53544154455F5A45524F5F0B
:102EA0004C000000C3BBD3D0D5D2B5BD20D4ADB546
:102EB000E3A3AC0A000000004D4F544F5F5355424E
:102EC0005F53544154455F444F574E5F46000000E6
:102ED000BCCCD0F8B7B4D7AAA3AC0A000A2D2D2DCC
:102EE0002D2D2D2D2D2D2D2D2D2D20D6D8B8B42DB9
:102EF0002D2D2D2D2D2D2D2D2D2D2D2D0A000000AC
:102F0000204D4F544F5F53544154455F53544F50DD
:102F100020CDA3D6B90A00007047000008B50121F2
:102F2000042000F02DF94FF40060ADF800000320FC
:102F30008DF8020048208DF8030069460148FFF72C
:102F400058F808BD00080140704710B54FF4A06064
:102F500000F03AF810BD000070B5002100230F22E8
:102F6000C47804B3154C246804F4E064C4F5E06448
:102F7000210AC1F10403CA40447804FA03F18478B9
:102F80001440214309010E4C0678A155047804F041
:102F90001F050124AC4005786D11AD0005F1E02559
:102FA000C5F8004109E0047804F01F050124AC4095
:102FB000044D0678761145F8264070BD0CED00E012
:102FC00000E400E080E100E002490143024A1160B0
:102FD000704700000000FA050CED00E010B537481E
:102FE00090F83B0036490978884200D110BD33483B
:102FF00090F83B00052857D2DFE800F003041220C8
:10300000490052E040F2CF712E4801F002F8002151
:103010002C4801F000F801212A4800F0D8FD44E0D6
:1030200040F2CF71274800F0F6FF0021254800F05C
:10303000F0FF0121234800F0CAFD36E01F4890F858
:103040003C00012802D002281AD10CE01EA002F098
:1030500087F841F287311B4800F0DBFF0021194857
:1030600000F0D9FF0DE01DA002F07AF841F287319F
:10307000144800F0D0FF0021124800F0CAFF00E021
:1030800000BF00BF01210F4800F0A1FD0DE00021AD
:103090000C4800F0C0FF00210A4800F0BAFF0021F0
:1030A000084800F094FD00BF00BF00BF034890F83F
:1030B0003B000349087000BF98E70000EC000020C7
:1030C000A8000020000400402050574D20C8ABCB82
:1030D000D9D5FDD7AABFAACBF80A00002050574D7A
:1030E00020C8ABCBD9B7B4D7AABFAACBF80A000087
:1030F0007047000010B5002409E0601CC4B2142021
:1031000001F080FFFA2C02D100BF204610BD034819
:1031100000680028F1D12046F8E700003001214284
:1031200029B1064A52690243044B5A6104E0034A3A
:1031300052698243014B5A617047000000100240FF
:1031400029B1064AD2690243044BDA6104E0034A1A
:10315000D2698243014BDA617047000000100240DF
:1031600029B1064A12690243044B1A6104E0034A7A
:1031700012698243014B1A6170470000001002403F
:1031800029B1064A92690243044B9A6104E0034A5A
:1031900092698243014B9A6170470000001002401F
:1031A00029B1064AD2680243044BDA6004E0034ABC
:1031B000D2688243014BDA60704700000010024081
:1031C00030B500210022002400232D4D6D6805F04C
:1031D0000C0121B1042905D0082923D105E0294D8E
:1031E000056022E0274D05601FE0254D6D6805F460
:1031F0007012234D6D6805F48034022505EB924270
:103200001CB9214D554305600BE01D4D6D6805F45B
:1032100000351DB11C4D5543056002E0194D554365
:10322000056002E0174D056000BF00BF144D6D68DA
:1032300005F0F0010909154D6B5C0568DD4045603E
:103240000F4D6D6805F4E061090A104D6B5C45682F
:10325000DD4085600A4D6D6805F46051C90A0B4D6B
:103260006B5C4568DD40C560054D6D6805F4404107
:10327000890B074D6B5CC568B5FBF3F5056130BD87
:103280000010024000127A0000093D001C000020DE
:103290002C0000207047000030B589B005460C4670
:1032A00001210220FFF74CFF01210920FFF768FFF1
:1032B0000320ADF8200018208DF8230003208DF89E
:1032C000220008A91A48FEF794FEA8B2ADF818002B
:1032D000A0B2ADF814000020ADF81A00ADF8160049
:1032E00005A9144800F09CFE6020ADF80400012000
:1032F000ADF806000020ADF80C0001A90D4800F063
:10330000E3FD01A90B4800F039FE0821094800F04F
:103310002BFE0821074800F06FFE0021054800F051
:1033200056FC0121034800F046FC09B030BD000006
:10333000000C01400004004010B500F001F810BD81
:103340000CB50020019000903348006840F48030B4
:103350003149086000BF3048006800F40030009038
:103360000198401C0190009818B90198B0F5A06F21
:10337000F1D12948006800F4003010B1012000901C
:1033800001E0002000900098012843D12348006804
:1033900040F01000214908600846006820F0030052
:1033A00008600846006840F0020008601A4840685B
:1033B000194948600846406848600846406840F43B
:1033C000806048600846406820F47C1048600846E9
:1033D000406840F4E81048600846006840F080709B
:1033E000086000BF0C48006800F000700028F9D0A9
:1033F0000948406820F003000749486008464068D3
:1034000040F00200486000BF0348406800F00C0034
:103410000828F9D10CBD0000001002400020024035
:1034200010B501200C4981F82400002081F8250006
:10343000012001F05FFE0849086208490648416121
:103440000520054908820120087000204860886036
:10345000C8604870488010BDD4010020DD1C000801
:1034600070B5CB490868FDF7DFFBCA49888301F1D5
:103470002A000021016041602A38808B4FF6FF71DD
:10348000884207D0C348808B062803DAC148808B66
:10349000002868D10120BF49888300240DE0BC4981
:1034A00001220868BB491C31FDF7F2FB00B906E0B8
:1034B000142001F081FD601CC4B2082CEFDB00BFBA
:1034C00000241AE0002104EB4402B2482330815466
:1034D00004EB440210444170012104EB4402AD4866
:1034E00023301044817034B9022104EB4402A9480E
:1034F000233010444170601CC4B2012CE2DB002474
:1035000022E004EB4401A34823300844817804EB13
:103510004402A0482A301044817004EB44019D48C5
:1035200023300844417804EB44029A482A3010447E
:10353000417004EB440197482330415C04EB4402A2
:10354000C01D8154601CC4B2012CDADB00219148FB
:10355000C1850146898B8E4A52F8210004228D498B
:103560002A31FDF795FB8B49898B894A52F8210056
:10357000042288492A31FDF75AFB002450E085488F
:103580002A3030F814004FF6FF71884246D10025EA
:103590001AE0002105EB45027E482330815405EBFB
:1035A000450210444170012105EB45027948233062
:1035B0001044817034B9022104EB44027548233071
:1035C00010444170681CC5B2012DE2DB002422E0EA
:1035D00004EB44016F4823300844817804EB440233
:1035E0006C482A301044817004EB44016948233050
:1035F0000844417804EB440266482A301044417084
:1036000004EB440163482330415C04EB4402C01DD9
:103610008154601CC4B2012CDADB03E0601CC4B22C
:10362000022CACDB00BF002419E004EB4401594834
:103630002A300844817804EB440256482330104471
:10364000817004EB440153482A300844417804EB6C
:1036500044025048233010444170601CC4B2012C15
:10366000E3DB4C4890F82E004A4981F86E0008468A
:10367000008EC882084690F86E0038B1084690F86F
:103680006E00012802D0002081F86E0000242CE09A
:1036900004EB44013F482330084441783D4846301C
:1036A000015504EB440123380844817839484830F7
:1036B0000155005D00EB4000374901EB8000416897
:1036C00034484C3040F82410001F005D00EB4000EF
:1036D000314901EB800081682E48503040F82410B9
:1036E0000121401D0155601CC4B2012CD0DB00201B
:1036F000284948748874C880C88381F8220006204D
:10370000087420212548FEF70AFDFA202149C860E7
:10371000062008760020487681F83200FF2081F8E4
:103720006F00002081F86D00886681F860004866AF
:1037300081F86C00002407E001211648563001553D
:10374000401E0155601CC4B2012CF5DB002407E0CB
:10375000002110483B300155401C0155601CC4B28B
:10376000012CF5DB00240DE000210A48403040F830
:103770002410001D0155401C0155133040F8241041
:10378000601CC4B2012CEFDBFFF74AFE70BD0000E5
:1037900038000020EC00002050000020000801400C
:1037A00010B54E4890F8220000B910BD4C48007882
:1037B00030B1012839D0022852D0032871D17DE0E0
:1037C00046482A30002101604160002422E004EBD9
:1037D0004401424823300844817804EB44023F48C6
:1037E0002A301044817004EB44013C4823300844E3
:1037F000417804EB440239482A301044417004EB0C
:10380000440136482330415C04EB4402C01D81541E
:10381000601CC4B2012CDADB3048C18A0186FF216A
:10382000C18501202E49087055E02C49898B2D4A0D
:1038300052F82100042229492A31FDF729FA58B10A
:1038400029480078401C2849087002202449087043
:1038500064202249088402E00320214908703AE0EC
:103860001E48008C28BB01201D4908701E480178A5
:103870000078401C1C4A107007291EDB1748808BFB
:10388000401C80B215498883062813DA00240EE014
:1038900014490122086811491C31FDF7F9F908B9EA
:1038A00007E014E0142001F087FB601CC4B2032C75
:1038B000EEDB02E003200A4908700CE00020074913
:1038C00081F82200064908700749087003E00320C8
:1038D0000349087000BF00BF00BF66E7EC0000208E
:1038E000A900002038000020AA00002010B54A4995
:1038F0000868411C484A1160C82804D900201146B4
:103900000860FEF719FC45480068401C4349086000
:1039100043490888411C424A1180B0F57A7F10DB88
:103920000020114608803D48C08B50B13B48C08BF9
:10393000401E3A49C8830846C08B10B9012081F85F
:1039400022003648008C20B13448008C401E334998
:1039500008843248C06820B13048C068401E2F49F2
:10396000C8602E48806E20B12C48806E401E2B49C6
:1039700088662A48406E20B12848406E401E27497C
:103980004866002445E02548403050F8240040B106
:103990002248403050F82400401E2049403141F870
:1039A00024001E484C3050F8240040B11B484C30D5
:1039B00050F82400401E19494C3141F824001748A2
:1039C000503050F8240040B11448503050F82400D2
:1039D000401E1249503141F824001048583050F828
:1039E000240040B10D48583050F82400401E0B49C7
:1039F000583141F8240009485C3050F8240030B1B7
:103A000006485C3050F82410491E40F82410601C11
:103A1000C4B2012CB7DB10BD00000020EC00002078
:103A200004000020042808D14FF0E021096941F08A
:103A300004014FF0E022116107E04FF0E021096935
:103A400021F004014FF0E0221161704710B51348D6
:103A5000006840F0010011490860084640681049BC
:103A600008400E494860084600680E4908400B4966
:103A700008600846006820F4802008600846406816
:103A800020F4FE0048604FF41F008860FFF754FCEC
:103A90004FF000600449086010BD000000100240B3
:103AA0000000FFF8FFFFF6FE08ED00E010B5012171
:103AB000880700F099F940B10121880700F078F8F3
:103AC0000248C088401C0149C88010BDEC0000209D
:103AD00010B50121094800F087F968B1084800884D
:103AE00040F40040064908800121044800F060F8D5
:103AF0000021024800F05FF810BD00000004004003
:103B0000B200002010B50121094800F06DF968B13C
:103B10000848008840F40040064908800121044814
:103B200000F046F80021024800F045F810BD000002
:103B300000080040B40000207FB505460C46012176
:103B40000420FFF7FDFAADF80450ADF80040002066
:103B5000ADF80600ADF8020069460E4800F060FAC4
:103B6000012211460B4800F050F90121094800F0EC
:103B700022F81E208DF80C0000208DF80D00022088
:103B80008DF80E0001208DF80F0003A8FFF7E4F96F
:103B90007FBD00000008004021B1028842F0800291
:103BA000028004E002884FF67F731A40028070475B
:103BB000CA430282704721B1028842F001020280AA
:103BC00004E002884FF6FE731A400280704731B15C
:103BD000B0F8442042F40042A0F8442005E0B0F8D8
:103BE0004420C2F30E02A0F8442070471AB1838922
:103BF0000B43838102E083898B43838170470000FC
:103C000010B504466848844208D10121C014FFF76A
:103C1000C7FA0021E014FFF7C3FAC4E0B4F1804F03
:103C200008D101210846FFF79BFA00210120FFF788
:103C300097FAB8E05D48844208D101210220FFF7DD
:103C40008FFA00210220FFF78BFAACE0584884423B
:103C500008D101210420FFF783FA00210420FFF797
:103C60007FFAA0E05348844208D101210820FFF7E1
:103C700077FA00210820FFF773FA94E04E48844257
:103C800008D101211020FFF76BFA00211020FFF767
:103C900067FA88E04948844208D101212020FFF7D3
:103CA0005FFA00212020FFF75BFA7CE04448844261
:103CB00008D101214014FFF773FA00216014FFF7C7
:103CC0006FFA70E03F48844209D10121C804FFF730
:103CD00067FA00214FF40020FFF762FA63E03A48E8
:103CE000844209D101210805FFF75AFA00214FF457
:103CF0008010FFF755FA56E03448844209D101217B
:103D00004805FFF74DFA00214FF40010FFF748FA7D
:103D100049E02F48844208D101214020FFF720FAD2
:103D200000214020FFF71CFA3DE02A48844208D1D8
:103D300001218020FFF714FA00218020FFF710FAFC
:103D400031E02548844208D101218015FFF708FAA7
:103D50000021A015FFF704FA25E02048844209D18C
:103D600001210804FFF71CFA00214FF48030FFF70F
:103D700017FA18E01A48844209D101214804FFF7D4
:103D80000FFA00214FF40030FFF70AFA0BE0154854
:103D9000844208D101218804FFF702FA00214FF480
:103DA0008020FFF7FDF910BD002C01400004004009
:103DB00000080040000C00400010004000140040CB
:103DC00000340140004C01400050014000540140CB
:103DD00000180040001C004000200040004001404E
:103DE000004401400048014030B502460020002355
:103DF0000024158A05EA0103958905EA010413B137
:103E00000CB1012000E0002030BD1AB183890B43C2
:103E1000838102E083898B438381704770B50024DE
:103E200000220023058C4FF6FE7635400584028C77
:103E30008388048B4FF68F752C40B51E2C400D885F
:103E40002C43751E2A400D892A434D882A43144D60
:103E5000A8420BD0134DA84208D0134DA84205D05C
:103E6000124DA84202D0124DA84213D14FF6F77559
:103E70002A404D892A434FF6FB752A408D882A43F4
:103E80004FF6FF652B404FF6FF552B408D892B4396
:103E9000CD892B4383800483CD888586028470BDC1
:103EA000002C01400034014000400140004401402A
:103EB000004801400A460021018B4FF6F773194074
:103EC000114301837047000070B5002400220023D5
:103ED000058C4FF6FF6635400584028C8388848B01
:103EE0004FF68F752C404FF6FC752C400D882C43F7
:103EF0004FF6FF552A400D894FF6FF7606EA052555
:103F00002A434D8806EA05252A43154DA84202D0CA
:103F1000144DA8421DD14FF2FF752A404D894FF62E
:103F2000FF7606EA05252A434FF6FF352A408D889D
:103F300006EA05252A434EF6FF752B404DF6FF7520
:103F40002B408D8906EA05152B43CD8906EA051518
:103F50002B4383808483CD888587028470BD0000D5
:103F6000002C0140003401400A460021818B4FF6AD
:103F7000F7731940114381837047000070B5002228
:103F800000230024058C4EF6FF7635400584038C13
:103F90008488828B48F6FF752A404FF6FF452A40F9
:103FA0000D884FF6FF7606EA05252A434DF6FF7584
:103FB0002B400D8906EA05352B434D8806EA053569
:103FC0002B430B4DA84202D00A4DA84208D14BF614
:103FD000FF752C408D894FF6FF7606EA85152C4338
:103FE00084808283CD88A0F84050038470BD000097
:103FF000002C0140003401400A460021818B4FF221
:10400000FF7319404FF6FF7303EA022319438183BC
:10401000704781877047A0F84010704781847047CF
:10402000002202881D4B98420ED01D4B98420BD0A7
:10403000B0F1804F08D01B4B984205D01A4B9842E4
:1040400002D01A4B984204D14FF68F731A404B8816
:104050001A43174B984207D0164B984204D04FF69C
:10406000FF431A40CB881A4302808B8883850B88D4
:1040700003850A4B98420BD0094B984208D00E4B4F
:10408000984205D00D4B984202D00D4B984201D179
:104090000B7A03860123838270470000002C0140C5
:1040A000003401400004004000080040000C0040C3
:1040B0000010004000140040004001400044014056
:1040C000004801402DE9F04104460E460025002736
:1040D000F5201049087000BF04E0715D681C0D4AAE
:1040E00011546D1CA542F8D331462046FCF75AFB0B
:1040F000084A611C5054F521A01C1154E71C0649C4
:104100000F70FDF7CFFDF9B2024800F0DAF9BDE813
:10411000F0810000C0000020C800002010B540F26F
:104120002551164800F009F9F8B1144800F0C0F91B
:10413000C4B21348008800F40040B0B910480088A9
:10414000B0F5C87F12DA00210E48FFF767FF0C4870
:10415000008818B901210B48FFF72DFD0849088890
:10416000411C074A118008490C5405E004480088A6
:1041700040F400400249088010BD000000380140B2
:10418000B200002000040040FC01002010B540F205
:104190002551164800F0D1F8F8B1144800F088F91C
:1041A000C4B21348008800F40040B0B91048008839
:1041B000B0F5C87F12DA00210E48FFF72FFF0C4838
:1041C000008818B901210B48FFF7F5FC0849088859
:1041D000411C074A118008490C5405E00448008836
:1041E00040F400400249088010BD00000044004037
:1041F000B4000020000800401C05002010B540F26B
:104200002551164800F099F8F8B1144800F050F91B
:10421000C4B21348008800F40040B0B910480088C8
:10422000B0F5C87F12DA00210E48FFF7F7FE0C4800
:10423000008818B901210B48FFF7BDFC0849088820
:10424000411C074A118008490C5405E004480088C5
:1042500040F400400249088010BD000000480040C2
:10426000B6000020000800403C08002021B18289EF
:1042700042F40052828104E082894DF6FF731A40B5
:104280008281704710B504462048844209D101213B
:104290008803FEF785FF00214FF48040FEF780FF82
:1042A00032E01B48844209D101214804FEF758FF3F
:1042B00000214FF40030FEF753FF25E015488442FB
:1042C00009D101218804FEF74BFF00214FF4802023
:1042D000FEF746FF18E01048844209D10121C804C6
:1042E000FEF73EFF00214FF40020FEF739FF0BE000
:1042F0000A48844208D101210805FEF731FF002158
:104300004FF48010FEF72CFF10BD00000038014074
:104310000044004000480040004C00400050004075
:1043200002460020B1F5007F00D100BF13880B408A
:104330000BB1012000E00020704770B50246002458
:1043400000230025002040F66A16B14200D100BFCC
:10435000C1F3421501F01F03012606FA03F3012DF4
:1043600002D19689334006E0022D02D1168A3340ED
:1043700001E0968A33400C12012606FA04F41688EE
:10438000344013B10CB1012000E0002070BDF0B545
:104390000346002400260025002040F66A17B94293
:1043A00000D100BF1846C1F3421401F01F060127D7
:1043B00007FA06F5012C01D10C3004E0022C01D1E2
:1043C000103000E014301AB107682F43076002E094
:1043D0000768AF430760F0BD2DE9F04786B005469A
:1043E0000E460024A24600BFA1460027B08900B1B6
:1043F00000BF2F462C8A4CF6FF700440F08804431F
:104400002C82AC894EF6F3100440B0883189084301
:10441000718908430443AC81AC8A4FF6FF400440E5
:10442000B0890443AC8201A8FEF7CAFE1F48874248
:1044300002D1DDF810A001E0DDF80CA0A88900F49D
:10444000004040B10AEBCA0000EB0A103168490095
:10445000B0FBF1F807E00AEBCA0000EB0A10316884
:104460008900B0FBF1F86420B8FBF0F004012009EA
:10447000642101FB1089A88900F4004040B132207A
:1044800000EBC900B0FBF1F000F00700044308E0C6
:10449000322000EB09106421B0FBF1F000F00F00B6
:1044A00004432C8106B0BDE8F087000000380140CD
:1044B00001468888C0F308007047C1F30802828073
:1044C000704770B504460D4600BF14F8010BFEF7A7
:1044D0000DF9681EC0B20500F7D170BD00BFFEE740
:1044E00010B5044621460548FFF7E7FF00BF8021CD
:1044F0000248FFF715FF0028F9D010BD0044004026
:104500000FB41CB50A46521ECDE9000207A9054B9F
:104510006A46069800F0DCF8009A002111701CBC75
:104520005DF814FB534F000837B514460846064B98
:104530006A46214600F076F904466946002000F0FC
:1045400013FD20463EBD0000694F000802E008C888
:10455000121F08C1002AFAD170477047002001E0FD
:1045600001C1121F002AFBD1704700002DE9FF5F37
:10457000DDE90220010DDDF838B0024318D044F621
:104580001050A1F2FF3141430D140F98012820D0A3
:10459000A5EB0B00401C5FEA000A4FF00004474EF9
:1045A000DFF81C91A046504616D5CAF1000728E056
:1045B0000F98012443A2012808D0002100980F9BE6
:1045C000C0E90021C0E90243BDE8FF9F6FEA0B018B
:1045D000F4E7CBF10000DEE7074612E0F80707D06A
:1045E0002246334640464946FBF7B5FE804689469B
:1045F0002246334610461946FBF7ADFE04460E46EA
:104600007F10002FEAD1DDE90201BAF1000F424626
:104610004B4602DAFBF79FFE01E0FBF70EFF044674
:104620000E460022284BFBF78FFF03D84FF0FF30D8
:10463000014607E00022254B20463146FBF7E4FD0A
:10464000FBF76AFF102409E0002C0ADB0A22002392
:10465000FBF7A9FD019B30321A55641E50EA010296
:10466000F2D1641C019AC4F1110314440F9A012A77
:1046700003D0012208430DD10AE0084304D00020F2
:104680004FF0110B0F9080E7A3EB0B056D1E0DE0B3
:104690005B4504DD4FF0000205F1010504E003DA9B
:1046A0004FF00002A5F10105002AECD000980F9907
:1046B000C0E90231C0E9004586E70000000024405F
:1046C0000000F03F300000000000F0430000E03F39
:1046D0002DE9FF4F89B09B460446002506E02528BA
:1046E0000BD05A460B999047641C6D1C207800280B
:1046F000F5D10DB02846BDE8F08F0027B84601225D
:10470000474900E0074314F8013F203B02FA03F059
:104710000842F7D120782E2819D114F8010F47F05C
:1047200004072A280ED06FF02F022078A0F1300164
:1047300009290CD808EB880102EB410100EB0108C4
:10474000641CF2E70A98641C50F8048B0A902078E5
:104750000028CED0642808D0692806D075281ED03D
:104760005A460B9990476D1C58E00A994FF00A0978
:1047700001C90A91002802DA40422D2102E03905E0
:1047800004D52B218DF82010012103E0F90704D076
:104790002021F7E78A4608AE0DE00021FAE70A99E2
:1047A0004FF00A0901C90A91F7E74946FBF7E5FC12
:1047B000303106F8011D0028F7D1ADEB060000F1FD
:1047C0002009780701D44FF00108C84502DDA8EBA5
:1047D000090000E000208046002706E008A85A46AD
:1047E000C05D0B9990476D1C7F1C5745F6DB04E0BC
:1047F00030205A460B9990476D1CB8F10001A8F182
:104800000108F5DC05E016F8010B5A460B999047B4
:104810006D1CB9F10001A9F10109F4DC641C65E724
:10482000092801002DE9FF4F95B09B4689460646B1
:1048300000250FE2252877D100242746F84A0121D8
:10484000059400E0044316F8013F203B01FA03F011
:104850001042F7D130782A2811D06FF02F0330782A
:10486000A0F13002092A16D8059A44F0020402EB9E
:10487000820203EB42021044761C0590EFE759F8E0
:10488000042B0592002A03DA504244F400540590A8
:1048900044F00204761C30782E2816D116F8010F49
:1048A00044F004042A280DD06FF02F023078A0F1D4
:1048B0003003092B09D807EB870302EB4303C71822
:1048C000761CF3E759F8047B761C30786C280FD0FF
:1048D00006DC4C2817D068280DD06A2814D104E0D3
:1048E000742810D07A280FD10DE044F400140AE0A7
:1048F00044F4801401E044F440147278824202D1FE
:1049000004F58014761C761C307866280BD013DCF6
:10491000582877D009DC002875D04528F6D04628DD
:10492000F4D047281AD19DE118E0632835D06428D7
:1049300079D0652812D195E1702873D008DC6728FA
:10494000F1D069286FD06E280DD06F2806D1B5E060
:1049500073282CD0752875D0782874D05A461799AA
:1049600090476D1C75E1C4F30250022809D003285A
:104970000DD0D9F8001004280DD00D6009F10409FC
:1049800067E1D9F80010EA17C1E90052F6E7D9F853
:1049900000100D80F2E70D70F0E719F8041B8DF898
:1049A000001000208DF80100EA46012003E059F8CC
:1049B00004AB4FF0FF3061074FF0000102D40DE06F
:1049C00008F101018846B9420FDA8045F8DB1AF890
:1049D00008100029F4D108E008F10101884681425D
:1049E000FADB1AF808100029F6D105985B46A0EB0F
:1049F000080721463846179A00F094FA284400EB3D
:104A0000080507E04DE029E10DE01AF8010B5A46D0
:104A100017999047B8F10108F7D25B46214638460E
:104A2000179A13E142E00A220092C4F302524FF0B7
:104A3000000A022A08D059F804CB032A4FEAEC7185
:104A40000AD00DE029E02AE009F1070121F0070270
:104A5000F2E802C1914609E00FFA8CFC4FEAEC71D2
:104A6000042A03D14FFA8CFC4FEAEC71002907DAD3
:104A70000A460021DCF1000C61EB02012D2202E06C
:104A8000220504D52B228DF80420012203E0E20741
:104A900001D02022F7E7904659E00A2102E01022D7
:104AA0000DE010214FF0000A00910BE010224FF0B2
:104AB000000A44F004040827009203E008224FF0A3
:104AC000000A0092C4F30252022A05D059F804CB1E
:104AD0000021032A08D009E009F1070121F00702AB
:104AE000F2E802C1914605E01FFA8CFC042A01D1CC
:104AF0000CF0FF0C4FF00008220728D5702806D0D4
:104B0000009B83F0100353EA0A0305D00EE0402215
:104B10008DF80420012208E05CEA010206D0302270
:104B20008DF804208DF8050002229046009B83F04A
:104B3000080353EA0A030AD15CEA010201D16207C1
:104B400005D530228DF804204FF001087F1E58282B
:104B500004D034A003900EA802900DE036A0F9E72F
:104B600053466046009AFBF71EFB84460398825C1E
:104B70000298401E029002705CEA0100F0D1029897
:104B800006A9081A00F1200A600702D524F480342F
:104B900000E00127574502DDA7EB0A0000E00020F6
:104BA00000EB0A01009005984144401A0590E0038B
:104BB00006D45B462146179A059800F0B3F90544E0
:104BC000002706E001A85A46C05D179990476D1C62
:104BD0007F1C4745F6DBE0030CD55B462146179A60
:104BE000059800F09FF9054404E030205A461799D3
:104BF00090476D1C0099481E00900029F5DC08E0E4
:104C0000029802995A460078491C029117999047D8
:104C10006D1CBAF10001AAF1010AF1DC65E10000A6
:104C20000928010030313233343536373839616282
:104C30006364656600000000303132333435363746
:104C400038394142434445460000000000F058F91D
:104C50000544761C307800287FF4ECAD19B0284666
:104C6000BDE8F08F620700D4062709F1070222F0A1
:104C7000070CFCE80223E14603F000485FEA080C59
:104C800002D00FF2702C0DE05FEA045C02D50FF247
:104C9000682C07E05FEAC47C02D00FF2602C01E0D0
:104CA000AFF2700C4FF0FF3823F00043CDF850C046
:104CB00065280CD006DC452809D046281DD0472899
:104CC0003DD13DE0662818D067287ED138E000212C
:104CD000112F01DB112000E0781CCDE9000106A9AD
:104CE0000EA8FFF743FCDDE90F010E9A03910021A6
:104CF000009207F1010A04914DE04FF00040009747
:104D0000CDE9011006A90EA8FFF730FCDDE90F027E
:104D100003920E9B11990022DDF80CA000930492DF
:104D200011B9791C00EB010AB7EB0A0004D4C0F1F9
:104D3000FF3007F1010A0490AAEB0700019044E05C
:104D4000012F00DA01270021112F01DD112000E0E1
:104D50003846CDE9000106A90EA8FFF707FCDDE9FA
:104D60000F010E9A0391002104910092BA46210787
:104D70000CD40399514500DA8A46BAF1010F05DDDA
:104D8000009AAAF10101515C302908D0B84202DA38
:104D900010F1040F06DA0121CDE9011015E0AAF1A6
:104DA0000101E9E7002805DC049901440491AAEB1C
:104DB000000102E0411C514500DD8A460499401A79
:104DC000401C01904FF000400290200704D401984D
:104DD000504501DBCDF8048000208DF84F0002988B
:104DE0000DF14F07B0F1004F25D02B200E90029807
:104DF0004FF0020800280CDA404202902D200E905D
:104E000007E00A210298FBF7B8F93031029007F861
:104E1000011DB8F10001A8F10108F2DC0298002898
:104E2000EFD1791E0E980870307800F0200040F025
:104E3000450007F8020D12A8C01B00F107081498DE
:104E4000007800B1012000EB0A01019801EBE0714C
:104E500005984144401A401E0590E00306D45B4685
:104E60002146179A059800F05DF8054414980078DB
:104E700018B15A46179990476D1CE00324D55B463C
:104E80002146179A059800F04DF805441CE0049857
:104E9000002807DBDDE90301884203DD0098405C60
:104EA000179901E0179930205A469047049805F168
:104EB0000105401C04900198401E019004D12E2051
:104EC0005A46179990476D1CBAF10001AAF1010AE0
:104ED000DDDC05E017F8010B5A46179990476D1C69
:104EE000B8F10001A8F10108F4DC5B462146179AED
:104EF0000598ABE62D0000002B000000200000000C
:104F00002DE9F041044600251E461746880404D4C6
:104F100005E039462020B0476D1C641EF9D52846AF
:104F2000BDE8F0812DE9F041044600251E4690467B
:104F3000C80301D5302700E02027880404D505E008
:104F400041463846B0476D1C641EF9D52846BDE879
:104F5000F0814A68002A06D00A68531C0B60107062
:104F60004868401E486070470A68531C0B60107008
:104F70007047000010B56FF00400FEF753FD0A48BB
:104F800000680A49B0FBF1F009490870084600784A
:104F900000EB4001C1EBC0104FF6FF7101EAC00009
:104FA0000449088010BD00000800002000127A00AB
:104FB000E0000020E20000200146114A12884A4326
:104FC0004FF0E0235A6100229A611A46126942F0BA
:104FD00001021A6100BF4FF0E022106900F00102E7
:104FE0001AB100F48032002AF5D04FF0E0221269A5
:104FF00022F001024FF0E0231A6100229A6170470B
:10500000E20000200146114A12784A434FF0E023A3
:105010005A6100229A611A46126942F001021A612D
:1050200000BF4FF0E022106900F001021AB100F455
:105030008032002AF5D04FF0E022126922F00102FE
:105040004FF0E0231A6100229A617047E0000020CF
:10505000FFF790FFFDF779FF4FF4964000F0A8F8B6
:10506000FDF79AF8FDF73CF9FDF748FAFDF756FF12
:10507000FDF752FFFBF784FE4FF4E13000F0FEF83D
:10508000FBF7B0FC10A000F06BF8472141F287302D
:10509000FEF702F900F06CF940F6A6610420FDF776
:1050A0004FF8FEF7DDF9FCF76FFF0BE0FDF724FB8F
:1050B0000F48C08830B10E48C088401E0C49C880D7
:1050C000FEF714FCF2E700002D2D2D2D2D2D2D2D9A
:1050D0002D2D2D2D2D2D2D2D73746172742D2D2DB3
:1050E0002D2D2D2D2D2D2D2D2D2D2D0A00000000C7
:1050F000EC000020F0B50B30154D20F00701002426
:10510000144A0FE003688B420BD38B4205D95E1A19
:1051100043184768C3E9006700E04368136002C0B2
:1051200004E0021D10680028ECD12046002802D1BE
:10513000286808B10020F0BD064A07481060074AF9
:10514000121A22F00702C0E9002401202860D7E7E4
:10515000E8000020E4000020EC0C0020E80E002015
:105160000FB438B505A800900F48009A0499FFF7CE
:10517000DBF9002000900C48FAF7F8FF85B2002414
:105180000DE000BF40210948FFF7CAF80028F9D018
:105190000548015D0548FFF790F9601C84B2AC42F8
:1051A000EFDB38BC5DF814FBCC0900200048004060
:1051B00010B586B0044601210420FDF7E1FF01216E
:1051C0004804FDF7BDFF2848FFF75CF80420ADF860
:1051D000140003208DF8160018208DF8170005A97B
:1051E0002248FCF706FF0820ADF8140048208DF88F
:1051F000170005A91E48FCF7FCFE01940020ADF83D
:105200000800ADF80A00ADF80C00ADF810000C2055
:10521000ADF80E0001A91448FFF7DEF8012112488D
:10522000FFF724F8012240F225510F48FFF7AFF8AD
:1052300026208DF8000002208DF801008DF8020074
:1052400001208DF803006846FDF786FE41F61F41F8
:105250006320FEF771FC0020064908800021064803
:10526000FEF7A9FC06B010BD004400400008014054
:10527000000C0140B40000200008004010B586B0CA
:10528000044601218804FDF75BFF01210920FDF799
:1052900077FF4FF48060ADF8140003208DF81600FE
:1052A00018208DF8170005A91C48FCF7A2FE4FF442
:1052B0000060ADF8140048208DF8170005A91748C4
:1052C000FCF797FE01940020ADF80800ADF80A0045
:1052D000ADF80C00ADF810000C20ADF80E0001A9DF
:1052E0000F48FFF779F801210D48FEF7BFFF0122B3
:1052F00040F225510A48FFF74AF827208DF80000B0
:1053000003208DF801008DF8020001208DF80300C4
:105310006846FDF721FE06B010BD0000000C0140FC
:105320000048004010B504460021204600F0CCF8AB
:1053300010BD000070B5002400250BE0002606E03B
:105340000A222046641C094921F81020761C182ED8
:10535000F6DB6D1C052DF1DBC4F1A301034A02EB62
:105360004400FAF7E6FE00F097F870BD5C0B0020F1
:1053700010B501210420FDF703FF0121C802FDF74C
:10538000FFFE01210846FDF7CBFE4FF48070364941
:1053900008801820C870022088703448FCF729FE65
:1053A0003348FEF72DFC1D203249888032480068C2
:1053B0003249B0FBF1F0401E2E4908800020C88021
:1053C00048802B48FEF72CFE60202D4908800120E4
:1053D00048800020C88008818880082048812448AF
:1053E000FEF71CFD08212248FEF764FD012120483C
:1053F000FEF7EDFB01211E48FEF7CEFB2148FBF72F
:1054000021FA1B48343020490860204848601020A9
:105410008860A320C86000200861802048614000A7
:1054200088618000C861002008624FF40050486223
:10543000002088621348FBF7B4FA0C201449087066
:105440000A204870002088700120C8700846FDF7C7
:1054500083FD012202210B48FBF79AFAFFF76AFF4E
:1054600001200C49086010BDD80000200008014050
:10547000002C0140A20C00200800002000366E0124
:10548000AC0C00201C000240BC0C00205C0B002077
:10549000DC000020D400002010B5A3210848FBF751
:1054A0009EFA01210648FBF7C1F901225102054885
:1054B000FEF79CFB01210348FEF77DFB10BD0000B9
:1054C0001C000240002C01402DE9F04704460E4626
:1054D0004FF00009B046052C03DA002C03DA601CFB
:1054E00008B1BDE8F08704EB44004FEAC009601C36
:1054F000A0B1B04600250EE008F4000008B1132268
:1055000000E00A22484609F10109134921F8102058
:105510004FEA48086D1C182DEEDB19E0002715E056
:10552000B04600250FE008F4000008B1132000E0A9
:105530000A2007EB470105EBC101074A22F81100D9
:105540004FEA48086D1C182DEDDB7F1C052FE7DBAB
:10555000FFF7A2FF00BFC4E75C0B002010B50446B4
:1055600021464FF0FF30FFF7AFFF10BD8C5500080C
:1055700000000020EC0000004C45000878560008B0
:10558000EC000020FC1100005C4500080000000059
:105590000000000000A24A0400000000000000001B
:1055A00001020304060708090000000001020304C9
:1055B00001020304060708090204060801000000AE
:1055C0000000000000E8000800EC000800F00008FF
:1055D00000F4000800F8000800FC000800000000CB
:1055E000002E9302002E930201000000C0D401009F
:1055F000B05F0E0002000000C0D4010000350C00B6
:1056000003000000C0D4010008930A000400000059
:10561000C0D4010090B2080005000000C0D4010011
:105620001092030006000000A00F0000020000001E
:10563000000000000000000000000000000000006A
:10564000000000000000000000000000000000005A
:10565000000000000000000000000000000000004A
:10566000000000000000000000000000000000003A
:08567000000000000000000032
:04000005080000ED02
:00000001FF
